:20010000544A4B400000000000000000000000000000000000119F8800000000000000007E
:2001200000230F4C000000000000000000470F2E000000000000000000470F2E0000000039
:2001400000000000034F0F3F000000000000000037CF0F2F88000000000000007FCF0F2FA7
:200160004C000000000000007FCF0F4F4C000000000000007F0F1FCF4C0000000000000172
:200180006F0F1FEF2E00000000000013EF0F1FEF1F00000000000013EF0F1FEF1F00000029
:2001A00000000013EF0F1FEF1F00000000000013EF0F0F6F1F00000000000001FF0F0F2F06
:2001C0003F000000000000007FCF0F2F4C000000000000337FCF0F2F4F00000000000023D7
:2001E0007FCF0F2F6F000000000000237FCF0F3F6F000000000000471FEF0F0FFF0800005C
:200200000000008F1FEF0F0FFF8C0000000000BCF0F0F0F0F08C00000000F0F0F0F0F0F000
:20022000F0F0C0000010F0F0F0F0F0F0F0F0E0000010F0F0F0F0F0F0F0F0C0000010F0F06E
:20024000F0F0F0F0F0F080000030F0F0F0F0F0F0F0F000000030F0F0F0F0F0F0F0E000002E
:200260000030F0F0F0F0F0F0F0C000000030F0F0F0F0F0F0F08000000030F0F0F0F0F0F0EE
:20028000F00000000030F0F0F0F0F0F0E00000000070F0F0F0F0F0F0C00000000070F0F09E
:2002A000F0F0F0F0800000000070F0F0F0F0F0F0000000000070F0F0F0F0F0E000000000EE
:2002C0000070F0F0F0F0F0C0000000000070F0F0F0F0F080000000000070F0F0F0F0F0007E
:2002E000000000000070F0F0F0F0E000000000000070F0F0F0F0C000000000000070F0F0AE
:20030000F0F0E000000000000070F0F0F0F0F000000000000070F0F0F0F0F080000000005D
:200320000070F0F0F0F0F0C0000000000070F0F0F0F0F0E0000000000070F0F0F0F0F0F0CD
:20034000000000000070F0F0F0F0F0F0800000000070F0F0F0F0F0F0C00000000030F0F02D
:20036000F0F0F0F0E00000000030F0F0F0F0F0F0F08000000030F0F0F0F0F0F0F0C000001D
:200380000030F0F0F0F0F0F0F0E000000030F0F0F0F0F0F0F0F000000030F0F0F0F0F0F03D
:2003A000F0F080000010F0F0F0F0F0F0F0F0C0000010F0F0F0F0F0F0F0F0E0000010F0F02D
:2003C000F0F0F0F0F0F0E000000070F0F0F0F0F0F0F0800000000030F0F0F0F0F00000003D
:2003E000000000000000000000000000010A0AC5CDB405210400E5210001E5CD6A042E0122
:20040000CDA605C1C5CD8D04210002CD8104C17DB7280879D64430030C1811C5210101CD36
:200420008104C17DB7280579B728010DC5210001CD8104C17DB7280778B72803051812C504
:20044000210004CD8104C17DB7280678D68A300104C5C52100C0E5CDC505EB210C3EE5D5FE
:20046000210401E5CDF704C1189AF1E1D1F51D19067FED597EE61FF640ED792B1DF27204CE
:20048000C97C572600019C0509AEA26FC9F30182F7ED49010EF458ED4901C0F650ED49ED09
:2004A000710192F7ED493E40219C0542ED7943EDA23C42ED7943EDA23C42ED7943EDA23CA9
:2004C00042ED7943EDA23C42ED7943EDA23C42ED7943EDA23C42ED7943EDA23C42ED794359
:2004E000EDA23C42ED7943EDA23C42ED7943EDA20182F7ED49FBC9F1E1D1C1F53E7E919156
:20050000320A0578EBEB0100081800EDA0EDA0EDA0EDA0EDA0EDA0EDA0EDA0EDA0EDA0EDBC
:20052000A0EDA0EDA0EDA0EDA0EDA0EDA0EDA0EDA0EDA0EDA0EDA0EDA0EDA0EDA0EDA0EDEB
:20054000A0EDA0EDA0EDA0EDA0EDA0EDA0EDA0EDA0EDA0EDA0EDA0EDA0EDA0EDA0EDA0EDCB
:20056000A0EDA0EDA0EDA0EDA0EDA0EDA0EDA0EDA0EDA0EDA0EDA0EDA0EDA0EDA0EDA0EDAB
:20058000A0EDA0EDA0EDA0EDA03DC8EB09477CE63878C205050150C009C30505FFFFFFFF86
:2005A000FFFFFFFFFFFF4D21C4057EE6FCB1067FED7977C9F32A3900EBED5621FBC922380B
:1B05C00000FBEBC98DF1D1C1F578E60767A86F0F0F856F29292906000919C90B
:00000001FF
