:200040005447434B64004C0434081C0C0410EC13D417BC1BA41F8C2374275C2B442F2C3324
:200060001437FC3AF0F0F0F0F0F0F0F0F0F0F0F0F0F0F0F0F0A40FC0F0F0F0F0F0F0F0F01C
:20008000F0F0F0F0F0F0F0F0F0F08740F0F0F0F0F0F0F0F0F0F0F0F0F0F0F0F0F0F087C012
:2000A000F0F0F0F0F0C2F0F0F0F0F0F0F0F0F0F0F0F087C0F0B4F0F0F0E0C3F0F0F0F0F080
:2000C000F0F0F0F0F0F087C0F0C378F0F0F0E00F3CF0F0F0F0F0F0F0F0E10FC00F0F0F0FA7
:2000E000B4F0F0E10F0CF0F0F0F0F0F0F0870EC00F0E0F0F0F0F0F09070F0F0C0F0F0F0FAD
:200100000F0F1C800E30A1070F0F0F0F0F0F0F0D070F0F2D0F0F380070E0F0F0C10FF0C36E
:200120000F0F0EF0A10F0E430F0EE000C00000B0F0F0F0F0F0F0F0F0F0F0F0F087F0C000BE
:2001400000000000000000000000C0600000000000300000000000000000000000000060EF
:2001600000000000000000000000000000000000000000000000000000000000000000007F
:200180000000000000000000F0F0F0F0F0F000000000000000E0E0F0D070C060F0E10F0FC0
:2001A0000FB090000030D8F0F0F0F0E1F00C2020F0FBCF0F0F0F0C20F3FFFCFFFFF00F0FFE
:2001C0002D0F0F0F1FFF8F0F0F0F1C8073FE80FFEF0F0F0F0F0F0F0F1FF000870F0F0F0F35
:2001E000200000CC00610F0F0F0F0F0F1F8810F0F0C30F0F320000CC00430F0F0F0FFFCF95
:20020000798811FC80210F0F330000C00061F3FCFEF1FFFFF98811FFF0FFF8F033000080C6
:200220000070F7FEFEF3EC00F0C8118031FFFEF0720080000070FE00C473880011C831806C
:2002400073C010F1720080100071EC004473007021C83300F6000073720040110071CC005F
:2002600000710077F8C82210EE310033760044310031C83000700030F6C80030EC7300331E
:2002800066006432003188308070800000C80010CC7200336600067600318833C872E000D8
:2002A00000400000CC000071660016E600308811C873F8C800402000440010F9660007EE93
:2002C00000308800007373CC004030000000F690EE0017EC0030C000003411C800C010C040
:2002E00000000010000043480010C00000700000008010E800000050000003080000E00070
:20030000C060E000308010E0308010F010E090F0F0F0F0F0F0F0F0F0F0F0F0D0F0F0F0F03D
:2003200010E10FF0F0F0F0F0F0F0F0F0F0F0F0F0F0F0F0F010C30FF0F0F0F0F0F0F0F0F07B
:20034000F0F0F0F0F0F0F0F010C31E70F0F0F1FFF3FEF0F0F0F7F0F0F0F0F0F410C31EF0AF
:20036000F0F0F1FFF7FCF0F0F0B7F0F0F0F0F3FC10C20EF0F0F0F1FFFFFCF0F0F0F3F0F046
:20038000F0F0FFF810C31EF0F0F0F1FDFFFEF3FCF3FBF1FFF0F0F3F820C31EF0F0F0F1FD83
:2003A000FDFEF6FEF6F7F3F7F8F0F3F830C31EF0F0F0F1FCF9FEFCFFFEF3F6F7F8F0F3F833
:2003C00030C21EF0F0F0F3FCF3FEFFFFFFFFF7FFF0F0F3F820C21EF0F0F0F3FCF3FEFFFFF2
:2003E000FFFFF7F8F8F0F3F800C21EF0F0F0F3FEF7FFFFFEF7FFF3FFF8F0F3F010611EF077
:20040000F0F0F0F2F0F0F3FCF1FFF1FFF0F0F7F810E11EF0F0F0F0F0F0F0F0F0F0F0F0F05D
:20042000F0F0F0F000411EF0F0F0F0F0F0F0F0F0F0F0F0F0F0F0F0F000411EF0F0F0F0F09E
:20044000F0F0F0F0F0F0F0F0F0F0F0F010C016F0F0F0F0F0F0F0F0F0F0F0F0F0F0F0F0F086
:2004600030C316F0F0F0F0F0F0F0F0F0F0F0F0F0F0F0F0F030C316F0F0F0F0F0F0F0F0F00A
:20048000F0F0F0F0F0F0F0F0308216F0F0F0F0F0F070F0F0F0F0F0F0F0F0F0F0308214F0EE
:2004A000F0F0F0E0070F0F2C0070F0F0F0F0F0F010831E870F0F0F0F0F0F0F0F0F0FF0F07D
:2004C000F0F0F0F010C20F0F0F0F0F0F0F0F0F0F0F0F0F0F0F0F0F3C10E00E0F0F0F0F0F06
:2004E0000F3C870F0F0F0F0F0F0F0F0F00F0F0F0E00070F0F0C0001C96F03C870F0F0F0F42
:200500000030F0F0F0F0F0F0F0F0F0F0F0F0F0C30F0F0F0F0010F0F0E0F0F0F0F0F0F0F01C
:20052000F0F0F0F0F0E10F3C000000000000000000000000000000000000000000000000DF
:2005400000000000000000000000000000000000000000000000000000000000000000009B
:200560000000000000000000000000000000000030108000000000000000000000000000BB
:200580000090C0F0F08005162D1CF0F01072C8402030F7FEF0E030F0E10F0F0F0F0F0F0F5E
:2005A000F0F3FCB0F0F1FFFFF8E090F0E10F0F0F0F1FFF8F0F2E10870F3FEC00D71CF0F0CA
:2005C000F0870F0F0F3FFFCF0F3F000F0F3F8800114B0F38F0D2D2F0F0F108010F1F000FE9
:2005E0000F3F800000830F0CF0C33CF0F0F00000F7F980F0F073000000217FBFFEF1FEF7CA
:20060000F8F38010FFFF80F0F0F1000070217F7FFFF0FFFFFEF1FFF1EC1088F0F0F0000061
:2006200074817C1180F0886430F00010C80000F0F0F0800033F8E6200003C8400070C831EF
:20064000886000F0F0F0C00000F6E6000031C80000F1C831007000F0F0F0F0000010E6003D
:200660008011C80000F1C830007380F0F0F1F8E6000062118811C80000F1C830003180F038
:20068000F0F1F3FF0000223188118830C0F1C830000000F0F0F018FE0000223100118870F8
:2006A000F0F18830800000F0F0F080000000220000318834F0F18810800000F0F0F0C00039
:2006C0000000660000318870F0F38810C00000F0F0F0F0000000E60000708070F0F08010DA
:2006E000F0800070F0F0F0E00030E66000F08030F0F00000F0F0F0F0F0F0F0F0F0F0E630FE
:20070000F0F0F0F0F0F0F0F0F0F0F0F0F0F0F0F0F0F0E630F0F0F0F0F0F0F0F0F0F0F0F0A3
:20072000F0F0F0F0F0F0EE30F0F0F0F0F0F0F0F0F0F0F0F0F0F0F0F0F0F0E030F0F0F0F04B
:20074000F0F0F0F0F0F0F0F0F0F0F0F0F0F0C010F0F0F0F0F0F0F0F0F0F0F0F0F0F0F0F0A9
:20076000F0F0F0F0F0F0F0F0F0F0F0F0F0F0F0F0F0F0F0F0F0F0F0F0F0F0F0F0F0F0F0F079
:20078000F0F0F0F0F0F0F0F0F0F0F0F0F0F0F0F0F0F0F0F0F0F0F0F0F0F0F0F0F0F0F0F059
:2007A000F0F0F0F0F0F0F0F0F0E01EF0F0F0F0F0F0F0F0F0F0F0F0F0F0F0F0F0F0F00F7874
:2007C000F0F0F0F0F0F0F0F0F0F0F0F0F0F0F0F0F0F0C33CF0F0F0F0F0F0F0F0F0F0F0F0FA
:2007E000F0F0F0F0F0F0F087F0F0F0F0F0F0F0F0F0F0F0F0F0F0F0F0F0F0F087F0F0F0F0CB
:20080000F0F0F0F0F0F0F0F0F0F0F0F0F0F0F0C33CF0F0F0F0F0F0F0F0F0F0F0F0F0F0F0B9
:20082000F0F0F0E178F0F0F0F0F0F0F0F0F0F0F0F0F0F0F0F0F0F0F0F0F0F0F0F0F0F0F03F
:20084000C31CC00000000000F0F0F0F0F0F0F0F0F0F0F0F0E11EC00000001080F0F0F0F0AA
:20086000F0F0F0F0F0F0F0F0E11EC000E0F0F0F0F0F0F0F0F0F0F0F0F0F0F0F0C31EC01098
:20088000F0000F1EF0F0F0F0F0F0F0F0F0F0F0F0871CC030830F0F68F0F0F0F0F0F0F0F0DF
:2008A000F0F0F0F0871EC0300338F0F0F0F0F0F0F0F0F0F0F0F0F0F00F3C803007F0F0F0B6
:2008C00078C396A5F0F0F0F0F0F0F0C10F3C403016F0F0F00F0F0F0F0F0F0F0F0F0F0F0FFC
:2008E0000F68C02016F0F0F00F0F0F0F0F0F0F0F0F0F0F30F0F0401096F0F0F00F0F78C0FA
:2009000000F0E006001020F0F0E000101CF0F0F00000301080C060300000C0000000001035
:200920001CF0F0F0000000000080000000000000000000001CF0F0F000000000000000005F
:2009400000000000000000611CF0F0F00000000000000000000010F078870F0B1EF0F0F043
:20096000F0F0F0F0F0F0F0F0C00010830F0F0F0F1EF0F0F03FFFD8F0F0F0F0F0E000103F85
:20098000FF0F1F8F3CF0F0F01FFF0F0CF0F0F0F0E0F1FFFFFF0FFF8FFFFCF0F01E00100F13
:2009A0000F0F0F0F3CF7FFFCC033FF91FFFEF0F01F88030F0F0F0F0F3C1000000031C81023
:2009C000C800F0F07B88270F0F0F0F0F3C80000000310010800070F0F3806797FFF8F0873E
:2009E0003C91800000318811C800F7F9FB807637FFFEF00F3C318830F8B18830FFF8F7F799
:200A0000BB000077C010F0C31CB18831D8D188308000F011880000760000700F1EB18011DC
:200A200090F18830E410E62080000066310030871EB3800010F18830EC10E6008000F064F5
:200A40007300300F3CB3000000F18830EC10E600E200F2CC720030873CB3000000F1883009
:200A6000EC10E611E600FFCC000070C33CF300012CF18830EC10E631E600F6400010F8C3A0
:200A80001EF300010EF18870CC10E631E200004000F690871EF700010FF18870CC00E6006B
:200AA000E0000020000010C31EFE00101EF38871CC00E600F00000B0000050873CC0000008
:200AC0003CF08070C000E600F08030F08010F0873CC000001EF0003080006660F0F0F0F07D
:200AE000F0F0F0873C80108070F0F0F0F0F0E630F0F0F0F0F0F0F0873CC010C31EF0F0F049
:200B0000F0F0E630F0F0F0F0F0F0F0C33CC010873CF0F0F0F0F0EE30F0F0F0F0F0F0F0C39C
:200B20003CC0308378F0F0F0F0F0E030F0F0F0F0F0F0F0C33CC030873CF0F0F0F0F0C0100C
:200B4000F0F0F0F0F0F0F0873CC0300F78F0F0F0F0F0F0F0F0F0F0F0F0F0F0C33CC01007D5
:200B600078F0F0F0F0F0F0F0F0F0F0F0F0F0F0C33CC0100F78F0F0E0F0F0B0B0F0F0F0F0C7
:200B8000F0F0F0873CC0100F78F0F08070C04378F0F0F0F0F0F0F0873CC0100F694B870FA4
:200BA0000F0F0F0FF0F0F0F0F0F0F0C33CC010070F2D0F0F0F0F0F0FF0F0F0F0F0F0F087E6
:200BC0003CC010870F0F0F0F0F0F0F0FF0F0F0F0F0F0F0873CC000E10F0F1EF0F0F0F0F02A
:200BE000F0F0F0F0F0F0F0873C8000610F0F3CF0F0F0F0F0F0F0F0F0F0F0F0873C800020C4
:200C0000F0F0F0F0F0B0F0F0F0F0F0F0F0F0F0873C800000000000000000000000000000C1
:200C2000000000000000000000000010A178F0F0000000000040000000407080708000301B
:200C4000C178F0F0C0F0F0F0F0F000206070F0F0F08000100178F0F00F02002040F0F0F021
:200C6000F0F0F0F0F0F04010C378F0F0C1830F0F0F0F0F0F0F0F0800F0F080108178F0F05C
:200C8000F0F0F0700F0F0F0F0F0F0F0F0F3C8010E178F0F0F0F0F0F0E0F0F0F0F0B0C30FA6
:200CA0000F1E8030C03CF002F0F0F0F0B0F0F0F0F0F0F00F0F0EE010C01EF00FF0F0F0F0A0
:200CC000F0F0F0F0F0F0F0F0830FC0D0C30F0F0FF0F0F0F0F0F0F0F0F0F0F0F0E00FC01083
:200CE000C10F0F0CF0F0F0F0F0F0F0F0F0F0F0F0F00F2810F0000930F0F0F0F0F0F0F0F0E9
:200D0000F0F0F0F0F0870C0060301080F0F0F0F0F0F0F0F0F0F0F0F0F0870C0000000000AD
:200D2000F0F0F0F0F0F0F0F0F0F0F0F0F0832C1000000000F0F0F0F0F0F0F0F0F0F0F0F084
:200D4000F0C30F2C70E00000F0F0F0F0F0F0F0F0F0F0F0F0F0C10F0F2CE00000F0F0F0F07A
:200D6000FFF0F0F0F0F0F0F0F0F009870F680000F0F0F0F0F7FFFFF0F0F0F0F0F0F070E167
:200D80000F380000F0F0F0F0C070FFFCF0F0F0F0F0F0F0F0C30EC000F0F0F0F0F20000302E
:200DA000F0F0F0F0F0F0F0F0F00F7800F0F0F0F0F3000000F0F0F0F0F0F0F0F0E00F7800A2
:200DC000FEF0F0F0F100200070F7FCF0FFF3F0FEF0F7DE80FFF0F0F0F180320031FFFFF02B
:200DE000F7FFF9FFF1FFEFC080F0F0F0F180330011E800F0E43231C873E810480030F0F0B7
:200E0000F180730011800030E4001080338000600030F0F0F188720011108810E60000000C
:200E2000301088208010F0F0F188660010318810E6000000103388008810F0F0F1884000C0
:200E400000318010E6000000007300008810F0F0F088000020000030E60000000000000052
:200E60000010F0F0F0C80000220000F4E6000064000000000030F0F0F0C80000600073C00F
:200E8000E61180E6200000000030F0F0F7C80000F0000000EE3080EE300000200070F0F0EA
:200EA000F0C00030F0800020E03080C07080002400F0F0F0E00070F0F0C000F0C010F0C02E
:200EC00030C0102CF0F0F0F0F0F0F0F0F0F0F0F0F0F0F0F0F0E10F2CF0F0F0F0F0F0F0F05A
:200EE000F0F0F0F0F0F0F0F0F0E10F2CF0F0F0F0F0F0F0F0F0F0F0F0F0F0F0F0F0E10F0C7A
:200F0000F0F0F0F0F0F0F0F0F0F0F0F0F0F0F0F0F0C10F0CF0F0F0F0F0F0F0F0F0F0F0F0C5
:200F2000F0F0F0F0F0E10F68F0F0F0F0F0F0F0F0F0F0F0F0F0F0F0F0F0C10B08F0F0F0F025
:200F4000F0F0F0F0F0F0F0F0F0F0F0F0F0E10F08B4D2F0F0F0F0F0F0F0F0F0F0F0F0F0F0C3
:200F6000F0E10B20F0E1F0F0F0F0F0F0F0F0F0D2F0F0F0F0F0E10B400F0FF0F0F0F0F09622
:200F80000F0F0F0FE070F0D290C30F400F0F0F0F78A50F0F0F0F0F0F0F0F0F0F0F0F0F68DD
:200FA0000F0F0F0F0F0F0F0F0F0F0F0F0F0F0F0F0F0F0F48F0010F0F0F0F0F070F0F0F124A
:200FC0000EF0D0F0F0F083C0F0E00F0F0F60C0C030F0F0F0F0F0F0F0F0F090C0F0F0F0D0C3
:200FE000F0F0F0F0F0F0F0F0F0F0F0F0E07010C00000000000000000000000000000000091
:201000000000100000411EF0F0F0F0F0F0F0F0F0F0F0F0F0F0F0F0F010C31EF0F0F0F0F0D0
:20102000F0F0F0F0F0F0F0F0F0F0F0F010C11EF0F0F0F0F0F0F0F0F0F0F0F0F0F0F0F0F091
:2010400010E01CF0F0F0F0F0F0F0F0F0F0F0F0F0F0F0F0F000E11CF0F0F0F0F0F0F0F0F027
:20106000F0F0F0F0F0F0F0F000C13CF0F0F0F0F0F0F0F0F0F0F0F0F0F0F0F0F000C11CF036
:20108000F0F0F0F0F0F0F0F0F0F0F0F0F0F0F0F000C31CF0F0F0F0F0F0F0F0F0F0F0F0F041
:2010A000F0F0F0F000433CF0F0F0F0F0F0F0F0F0F0F0F0F0F0F0F0F000C33CF0F0F0F0F052
:2010C000F0F0F0F0F0F0F0F0F0F0F0F000C33CF0F0F0F0F0F0F0F0F0F0F0F0F0F0F0F0F0E1
:2010E00000C33CF0F0F0F0F0F0F0F0F0F0F0F0F0F0F0F0F000C33CF0F0F0F0F0F0F0F0F092
:20110000F0F0F0F0F0F0F0F000C338F0F0F0F0F0F0F0F0F0F0F0F0F0F0F0F0F010C338F069
:20112000F0F0F0F0F0F0F0F0F0F0F0F0F0F0F0F0108338F0F0F0F0F0F0F0F0F0F0F0F0F0B4
:20114000F0F0F0F0108338F0F0F0F0F0F0F0F0F0F0F0F0F0F0F0F0F010C338F0F0F0F0F059
:20116000F0F0F0F0F0F0F0F0F0F0F0F010C378F0F0F0F0F0F0F0F0F0F0F0F0F0F0F0F0F0F4
:20118000108778F0F0F0F0F0F0F0F0F0F0F0F0F0F0F0F0F0100378F0F0F0F0F0F0F0F0F055
:2011A000F0F0F0F0F0F0F0F0108378F0F0F0F0F0F0F0F0F0F0F0F0F0F0F0F0F010C378F079
:2011C000F0F0F0F0F0F0F0F0F0F0F0F0F0F0F0F0108178F0F0F0F0F0F0F0F0F0F0F0F0F0D6
:2011E000F0F0F0F010C178F0F0F0F0F0F0F0F0F0F0F0F0F0F0F0F0F010C178F0F0F0F0F0FD
:20120000F0F0F0F0F0F0F0F0F0F0F0F0108178F0F0F0F0F0F0F0F0F0F0F0F0F0F0F0F0F095
:20122000108170F0F0F0F0F0F0F0F0F0F0F0F0F0F0F0F0F01083F0F0F0F0F0F0F0F0F0F0CA
:20124000F0F0F0F0F0F0F0F01043F0F0F0F0F0F0F0F0F0F0F0F0F0F0F0F0F0F0108370F0E8
:20126000F0F0F0F0F0F0F0F0F0F0F0F0F0F0F0F010E1F0F0F0F0F0F0F0F0F0F0F0F0F0F05D
:20128000F0F0F0F010E1F0F0F0F0F0F0F0F0F0F0F0F0F0F0F0F0F0F010F0F0F0F0F0F0F01D
:2012A000F0F0F0F0F0F0F0F0F0F0F0F010F0F0F0F0F0F0F0F0F0F0F0F0F0F0F0F0F0F0F00E
:2012C00010F0F0F0F0F0F0F0F0F0F0F0F0F0F0F0F0F0F0F010E0F0508078F0F0F0F0F0F066
:2012E000F0F0F0F0F0F0F0F010F0E02080D0F0F0F0F0F0F0F0F0F0F0F0F0F0F000000020DE
:20130000009030F0F0F0F0F0F0F0F0F0F0F0F0F000001070B000E070F0F0F0F0F0F0F0F0DD
:20132000F0F0F0F0000010D080A02030F0F0F0F0F0F0F0F0F0F0F0F0000030C2F0E0001487
:20134000F0F0F0F0F0F0F0F0F0F0F0F0000010D2F0C000B0F0F0F0F0F0F0F0F0F0F0F0F0CB
:20136000000010D2F0E040D2F0F0F0F0F0F0F0F0F0F0F0F0000030C2F0F060204020104067
:20138000E0F0F0F0F0F0F0F000003092F0F040011080C06020F0F0F0F0F0D0A000001012E8
:2013A00080C0E0008190C0600F0F0F0F0F0F0F0F00001000005080000108010F0F0D070F39
:2013C0000F050F0F0000301080F0E0000000C0F0F0F09040603010900000000000000000BB
:2013E000000000000000000060000000F0F0F0E178F0F0F0F0F0F0F0F0F0F0F0F0F0F0F054
:20140000F0F0F0E078F0F0F0F0F0F0F0F0F0F0F0F0F0F0F0F0F0F0F038F0F0F0F0F0F0F00C
:20142000F0F0F0F0F0F0F0F0F0F0F0F03CF0F0F0F0F0F0F0F0F0F0F0F0F0F0F0F0F0F0F060
:2014400078F0F0F0F0F0F0F0F0F0F0F0F0F0F0F0F0F0F0F0F0F0F0F0F0F0F0F0F0F0F0F004
:20146000F0F0F0F0F0F0F0F0F0F0F0F0F0F0F0F0F0F0F0F0F0F0F0F0F0F0F0F0F0F0F0F06C
:20148000F0F0F0F0F0F0F0F0F0F0F0F0F0F0F0F0F0F0F0F0F0F0F0F0F0F0F0F0F0F0F0F04C
:2014A000F0F0F0F0F0F0F0F0F0F0F0F0F0F0F0F0F0F0F0F0F0F0F0F0F0F0F0F0F0F0F0F02C
:2014C000F0F0F0F0F0F0F0F0F0F0F0F0F0F0F0F0F0F0F0F0F0F0F0F0F0F0F0F0F0F0F0F00C
:2014E000F0F0F0F0F0F0F0F0F0F0F0F0F0F0F0F0F0F0F0F0F0F0F0F0F0F0F0F0F0F0F0F0EC
:20150000F0F0F0F0F0F0F0F0F0F0F0F0F0F0F0F0F0F0F0F0F0F0F0F0F0F0F0F0F0F0F0F0CB
:20152000F0F0F0F0F0F0F0F0F0F0F0F0F0F0F0F0F0F0F0F0F0F0F0F0F0F0F0F0F0F0F0F0AB
:20154000F0F0F0F0F0F0F0F0F0F0F0F0F0F0F0F0F0F0F0F0F0F0F0F0F0F0F0F0F0F0F0F08B
:20156000F0F0F0F0F0F0F0F0F0F0F0F0F0F0F0F0F0F0F0F0F0F0F0F0F0F0F0F0F0F0F0F06B
:20158000F0F0F0F0F0F0F0F0F0F0F0F0F0F0F0F0F0F0F0F0F0F0F0F0F0F0F0F0F0F0F0F04B
:2015A000F0F0F0F0F0F0F0F0F0F0F0F0F0F0F0F0F0F0F0F0F0F0F0F0F0F0F0F0F0F0F0F02B
:2015C000F0F0F0F0F0F0F0F0F0F0F0F0F0F0F0F0F0F0F0F0F0F0F0F0F0F0F0F0F0F0F0F00B
:2015E000F0F0F0F0F0F0F0F0F0F0F0F0F0F0F0F0F0F0F0F0F0F0F0F0F0F0F0F0F0F0F0F0EB
:20160000F0F0F0F0F0F0F0F0F0F0F0F0F0F0F0F0F0F0F0F0F0F0F0F0F0F0F0F0F0F0F0F0CA
:20162000F0F0F0F0F0F0F0F0F0F0F0F0F0F0F0F0F0F0F0F0F0F0F0F0F0F0F0F0F0F0F0F0AA
:20164000F0F0F0F0F0F0F0F0F0F0F0F0F0F0F0F0F0F0F0F0F0F0F0F0F0F0F0F0F0F0F0F08A
:20166000F0F0F0F0F0F0F0F0F0F0F0F0F0F0F0F0F0F0F0F0F0F0F0F0F0F0F0F0F0F0F0F06A
:20168000F0F0F0F0F0F0F0F0F038F0F0F0F0F0F0F0F0F0F0F0F0F0F0F0F0F0F0F016F0F0DC
:2016A000F0F0F0F0F0F0F0F0F0F0F0F0F0F0F0F0F083F0F0F0F0F0F0F0F0F0F0F0F0F0F097
:2016C000F0F0F0F0F0071CF0F0F0F0F0F0F0F0F0F0F0F0F0F0F0F0F0F0C30EF0F0F0F0F0D6
:2016E000F0F0F0F0F0F0F0F0F0F0F0F0F0E00F78F0F0F0F0F0F0F0F0F0F0F0F0F0F0F0F053
:20170000F0F0830CF0F0F0F0F0F0F0F0F0F0F0F0F0F0F0F0F0F0C10F78F0F0F0F0F0F0F0A2
:20172000F0F0F0F0F0F0F0F0F0F0F00F78F0F0F0F0F0F0F0F0F0F0F0F0F0F0F0F0F0F00FE3
:201740001CF0F0F0F0F0F0F0F0F0F0F0F0F0F0F0F0F0F0C10F3CF0F0F0F0F0F0F0F0F0F021
:20176000F0F0F0F0F0F0F0F00F0F3CF0F0F0F0F0D0F0F0F0F0F0D0F0F0F0F0F0070F0F08B2
:20178000F0F0F0F00F0F0F0F0F0F0F0F0F0F0F0F0F0F0F0F0F0F0F0F0F0B0C070F0F0F07FC
:2017A0000F0F0F0F070F0F0F0F0F0F0F50E0B050F0F0F0F0F0F0C01C80070C080041F020E5
:2017C0000000000000000000000000000000000000000000F0F0F0F0F0F0F0873CC00000F6
:2017E0000000000000000000F0F0F0F0F0F0F0871CC0000030E0F0C060000000F03CF0F0CA
:20180000F0F0F0871CC00000B0F0F0F0E0800000F00F78F0F0F0F0871CC00030F0F00B0FF1
:201820000F70F0F0F0C31AF0F0F0F0871EC010F0E10F0F0F0F0F38E0F0C10F70F0F0F0878C
:201840001CC010F0070F0F0F0F0F3CE1F0F00F3CF0F0F0871C8010C30F0F0F0F090E0B0FDF
:20186000F0F0871CF0F0D2871C8010830F0F1EF0F0F0870FF0F0C30F70F0C00F1C80100F3F
:201880000F78F0F0F0E00F0FF0F0E00F1EF0F0870E80000F1AF0F0F0F0E10778F0F0F007F1
:2018A0000EF0F0C11EA0100F78F0F0F0F0C31EF0F0F0F0C30F78F0F0F080000778F0F0F0DA
:2018C000F08338F0F0F0F0C30F18E0F0F080100778F0F0F0F0F070F0F0F0F0E00F0E70C0D7
:2018E0000000100F78F0F0F0F0F0F0F0F0F0F0F0070F38400000100778F0F0F0F0F0F0F054
:20190000F0F0F0F0C30F70800000100778F0F0F0F0F0F0F0F0F0F0F0E10F3CC000001087E3
:2019200078F0F0F0F0F0F0F0F0F0F0F0E10F3CE00000108778F0F0F0F0F0F0F0F0F0F0F074
:20194000F0870EF0400000C378F0F0F0F0F0F0F0F0F0F0F0F0C30FF0800000C378F0F0F00A
:20196000F0F0F0F0F0F0F0F0F0C10FF0E000108338F0F0F0F0F0F0F0F0F0F0F0F0F00F70DD
:201980008000008338F0F0F0F0F0F0F0F0F0F0F0F0F00F78800000C338F0F0F0F0F0F0F04A
:2019A000F0F0F0F0F0F00F78800010C138F0F0F0F0F0F0F0F0F0F0F0F0F08318E00000C10B
:2019C00038F0F0F0F0F0F0F0F0F0F0F0F0F0831CE00000E138F0F0F0F0F0F0F0F0F0F0F0B7
:2019E000F0F0C31EC00000C338F0F0F0F0F0F0F0F0F0F0F0F0F0C31CC00000C338F0F0F0D1
:201A0000F0F0F0F0F0F0F0F0F0F0E11EC00000C378F0F0F0F0F0F0F0F0F0F0F0F0F0E10E4D
:201A2000C00010C338F0F0F0F0F0F0F0F0F0F0F0F0F0E10E400000C378F0F0F0F0F0F0F0B1
:201A4000F0F0F0F0F0F0E10FF00000C338F0F0F0F0F0F0F0F0F0F0F0F0F0E00ED00010C34A
:201A600038F0F0F0F0F0F0F0F0F0F0F0F0F0C10EC000104338F0F0F0F0F0F0F0F0F0F0F094
:201A8000F0F0F00EC000108378F0F0F0F0F0F0F0F0F0F0F0F0F0F01EC000108378F0F0F0C4
:201AA000F0F0F0F0F0F0F0F0F0F0F01CE000300778F0F0F0F0F0F0F0F0F0F0F0F0F0F00EFD
:201AC000E00030C370F0F0F0F0F0F0F0F0F0F0F0F0F0F00FD00010C3F0F0F0F0F0F0F0F071
:201AE000F0F0F0F0F0F0F00B0000304378F0F0F0F0F0F0F0F0F0F0F0F0F0F00F000030C33E
:201B000078F0F0F0F0F0F0F0F0F0F0F0F0F0F00F400030C338F0F0F0F0F0F0F0F0F0F0F063
:201B2000F0F0F01E600030C338F0F0F0F0F0F0F0F0F0F0F0F0F0E10F0000308378F0F0F011
:201B4000F0F0F0F0F0F0F0F0F0F0C00FC00030C378F0F0F0F0F0F0F0F0F0F0F0F0F0E11EFC
:201B6000400030C178F0F0F0F0F0F0F00F0F0F0F0F0F7830800030E078F0F0F0F0F0F0F092
:201B80000F0F0F0F0F0F70F0000030F0F0F0F0F0F0F0F0F00F0F0E0000D0F0F0000000F01F
:201BA000B0F0F0F0F0F0F0F00000001000000000000000C070F0F0F0F0F0F0F00000000015
:201BC000000000000000000000000000000000000000000030F0F0F0F0F0F0F0F0F0F0F085
:201BE00090801000002030F0F0A4F0F0F0F0F0F0F0F0F0F0F0E00000F0830C0F0F0F0F0FF7
:201C00000F0F1EA5F0F0F0F0F06000000F0F0F0F0F0F0F0F0F0F0F0F0F090F0F0F38E000C2
:201C20000F0F0F0F0F0F0F0F0F0F0F0F0F0F0F0F0F0E70800F0F0F0F0F3CF0F04B0F0F0FC8
:201C40000F0F1E30C30F3C800F1AC2C0B4F0F0F0F0F0F0D090F0F0F0F0871CC0F0F0F0F048
:201C6000F0F0F0F0F0F0F0F0F0F0F0F0F0871EE0F0F0F0F0F0F0F0F0F0F0F0F0F0F0F0F0AF
:201C8000F0870EE0F0F0F0F0F0F0F0F0F0F0F0F0F0F0F0F0F0830EE0F0F0F0F0F0F0F0F0FE
:201CA000F0F0F0F0F0F0F0F0F0C31CC0F0F0F0F0F0F0F0F0F0F0F0F0F0F0F0F0F0C304C09E
:201CC000F0F0F0F0F0F0F0F0F0F0F0F0F0F0F0F0F0C314E0F0F0F0F0F0F0F0F0F0F0F0F01D
:201CE000F0F0F0F0F0C30EC0F0F0F0F0F0F0F0F0F0F0F0F0F0F0F0F0F0C30EC0F0F0F0F062
:201D0000F0F0F0F0F0F0F0F0F0F0F0F0F0C30EE0F0F0F0F0F0F0F0F0F0F0F0F0F0F0F0F0E2
:201D2000F0C31CC0F0F0F0F0F0870F0E70F0F0F0F0F0F0F0F0831CC0F0F0F0F0F0F0C10F01
:201D40000EF0B4F0F0F0F0F0F0871EE0F0F0F0F0F0F0F00F0F70F0F0F0F0F0F0F0870EC0A9
:201D6000F0F0F0F0F0F0F0F0871EC1F0F0F0F0F0F0C30EC0F0F0F0F0F0F0F0F0C31EE1F01A
:201D8000F0F0F0F0F0C30EC0F0F0F0F0F0F0F0F0F00F69F0F0F0F0F0F0C30EC0F0F0F0F029
:201DA000F0F0F0F0F0C30FF0F0F0F0F0F0C306C0F0F0F0F0F0F0F0F0F0C30FF0F0F0F0F086
:201DC000F0C306C0F0F0F0F0F0F0F0F0F0C10FF0F0F0F0F0F0C306C0F0F0F0F0F0F0F0F0A1
:201DE000F0E10FF0F0F0F0F0F0C314C0F0F0F0F0F0F0F0F0F0F00F70F0F0F0F0F0C204C0B7
:201E0000F0F0F0F0F0F0F0F0F0F086F0F0F0F0F0F0C200C0F0F0F0F0F0F0F0F0F0F0867064
:201E2000F0F0F0F0F08220C0F0F0F0F0F0F0F0F0F0F0C1F0F0F0F0F0F08230E0F0F0F0F07D
:201E4000F0F0F0F0F0F0E1F0F0F0F0F0F08220E0F0F0F0F0F0F0F0F0F0F0E1F0F0F0F0F0EE
:201E6000F08738E0F0F0F0F0F0F0F0F0F0F0E1F0F0F0F0F0F08738C0F0F0F0F0F0F0F0F0F3
:201E8000F0F0E170F0F0F0F0F08770C0F0F0F0F0F0F0F0F0F0F0F078F0F0F0F0F08770C07B
:201EA000F0F0F0F0F0F0F0F0F0F0F078F0F0F0F0F087F0E0F0F0F0F0F0F0F0F0F0F0F0F013
:201EC000F0F0F0F0F08778C0F0F0F0F0F0F0F0F0F0F0F070F0F0F0F0F08770C0F0F0F0F0AC
:201EE000F0F0F0F0F0F0F0F0F0F0F0F0F08378C0F0F0F0F0F0F0F0F0F0F0F0F0F0F0F0F0F7
:201F0000F087F0C0F0F0F0F0F0F0F0F0F0F0F0F0F0F0F0F0F08770C0F0F0F0F0F0F0F0F073
:201F2000F0F0F0F0F0F0F0F0F0C370E0F0F0F0F0F0F0F0F0F0F0F0F0F0F0F0F0F0C2F0007C
:201F4000F0F0F0F0F0F0F0F0F0F0F0F0F0F0F0F0F0C2F080F0F0F0F0F0F0F0F0F0F0F0F01F
:201F6000F0F0F0F0F086F080F0F0F0F0F0F0F0F0F0F0F0F0F0F0F0F0F086F000F0F0F0F095
:201F8000F0F0F0F0F0F0F0F0F0F0F0F0F096F080F0F0F0F0F0F0F0F0F0F0F0F0F0F0F0F00B
:201FA000F0A4F080000000000000000000000000000000000000000000000000000000001D
:201FC000000000000000000000000000000000000000000000000000000000000000000001
:201FE0000000001010D0800010E08070E0B0B04000000000000070F0E0C0203010A050E0E1
:20200000F0F0F0F0907080000030F0B080C06030103CF0E0705090C0F0F0C0001070000094
:202020000F0F0F0F0F381083000104001850C00010E000070F1E20B0F0D01007030F0F0D64
:202040001C80E00010E0213CF0F0F0F0F0E0C10F0F0F38D0C3163000109016F0F0F0F0F0C2
:20206000F00006F0F0F0F0F0F0081000108038F0F0F0F0F0F02158F0F0F0F0F0F080700041
:20208000302170F0F0F0F0F0F090F0F0F0F0F0F0F092708010C3F0F0F0F0F0F0F0F0F0F00A
:2020A000F0F0F0F0F070B08070C2F0F0F0F0F0F0F0F0F0F0F0F0F0F0F090F000F030F0F00E
:2020C000F0F0F0F0F0F0F0F0F0F0F0F0F0F0F0801670F0F0F0F0F0F0F0F0F0F0F0F0F0F0CA
:2020E000F0F0F080F0F0F0F0F0F0F0F0F0F0F0F0F0F0F0F09292B000F0F0F0F0F0F0F0F03C
:20210000F0F0F0F0F0F0F0F00CD2D000F0F0F0F0F0F0F0F0F0F0F0F0F0F0C31E70E17800C7
:20212000A00F38F0F0F0F0F0F0F0F0F0870F1EF0D00060000F0F78F0E0F0E0F0F0811E833C
:202140000F14F0D0F0F0F0000F0F70F080410710108000F0F0F0F0F060F0C0000960F0F0DD
:20216000E0000000000000F0F0F0F0F000708000F0F0F0F0F0F0E070D0F0F0F0F0F0D0E0BF
:2021800000000000000000000000000000000000000000000000000000000000000000003F
:2021A000000000000000000000000000F0E03010B0C060301080C06030704000000000007F
:2021C000E0C308F0F0F0F0F0F0F0F0F0F0F0E000E08000000F0F0F0F1CB08070F010C0B05C
:2021E000F0D0F0F0F0F0F0F00F0F0F0F0F0F0F0F0E040708070F0F000C0070F00F0F0FC266
:202200003CE0D0F080830F0F0F0F0F0F0F0F0C1070F0F0F0F0F0F0F0F0F0F0F0F0F0E0705B
:2022200020810F0FF0F0F0F0F0F0F0F0F0F0F0F0F0F0F0F0F0F0E010F0F0F0F0F0F0F0F08F
:20224000F0F0F0F0F0F0F0F0F0F0F0F0F0F0F0F0F0F0F0F0F0F0F0F0F0F0F0F0F0F0F0F07E
:20226000F0F0F0F0F0F0F0F0F0F0F0F0F0F0F0F0F0F0F0F0F0F0F0F0F0F0F0F0F0F0F0F05E
:20228000F0F0F0F0F0F0F0F0F0F0F0F0F0F0F0F0F0F0F0F0F0F0F0F0F0F0F0F0F0F0F0F03E
:2022A000F0F0F0F0F0F0F0F0F0E0F0F0F0F0F0F0F0F0F0F0F0F0F0E0B0F0F0F08170F0F06D
:2022C000F0F0F0F0F0F0F0F0F0F0F0F0D03CF0A01E70F0F0F0F0F0F0F0F0F0F0F0F0F0F074
:2022E000F0410F0F08F0F0F0F0F0F0F0F0F0F0F0F0F0F0F0E0E0070F38F0F0F0F0F0F0F0D9
:20230000F0F0A0050F08010F0F0F0FB0F0F0F0F0F0F0F0F087070F0F0F0F0F28835830F0B8
:20232000F0F0F0F0F0F0F0F00F0F0F0F0F0E60F0F0B0C078F0F0F0F0F0F0F0F00F0F70701E
:2023400070F0C0800090F052D0F0F0F0F0F0F0F00F0EF0F0F0B0400000207003F0F0F0F07B
:20236000F0F0F0F0F0F0F0D0F0E00000000010A130F0F0F0F0F0F0F00000000000000000BC
:20238000000000F03CF0F0F0F0F0F0F0000000000000000000000000000000000000000081
:2023A000000000000000001000000000000000000000000000000000F0F0F0F0F0F0F0F08D
:2023C000F0F0F0F0F0F000F000004070F0F0D2F0000C6030F0F0F0F0F0F0F0F0001070E19E
:2023E00030F0F0490B0F0F0F0F0E0B030C70F0D0001070D048D0D00D0F0F0F0F0F0F0F0F28
:202400000F0F0F0F0010F0830778D070F0F0F0F080030F0F0F0F0F0F0030F0B4F086D0780F
:20242000F0F0F0F0F0F0C292A00F0F0F0030E178F0F03C94F0F0F0F0F0F0E078F0F0F08258
:2024400000F096F0F0F0D286F0F0F0F0F0F0F090F0F0F0F0006096F0F0F0E1C3F0F0F0F0C4
:20246000F0F0F0F0F0F0F0F000F03CF0F0F0F08578F0F0F0F0F0F0F0F0F0F0F000F038F08B
:20248000F0F0F0C378F0F0F0F0F0F0F0F0F0F0F000F038F0F0F0F0E178F0F0F0F0F0F0F010
:2024A000F0F0F0F000D078F0F0F0F0F0B4F0F0F0F0F0F0F0F0F0F0F010C078F0F0F0F0F068
:2024C000B4F0F0F0F0F0F0F0F0F0F0F010F03CF0F0F0F0F0D2F0F0F0F0F0F0F0F0F0F0F0EA
:2024E00000D03CF0F0F0F0F0F0F0F0F0F0F0F0F0F0F0F0F010C03CF0F0F0F0F0F0F0F0F064
:20250000F0F0F0F0F0F0F0F010903CF0F0F0F0B0F0F0F0F0F0F0F0F0F0F0F0F010F02C6023
:20252000C220438358F0F0F0F0F0F0F0F0F0F0F000E10E0F0F0F0F0F0F0F0F3CF0F0F0F0E8
:20254000F0F0F0F000F038C000030F0F0F0F0F3CF0F0F0F0F0F0F0F040F0F0F0F0E0B040F9
:2025600050830F0FF0F0F0F0F0F0F0F000000000000020000000300FF0F0F0F0F0F0F0F00B
:2025800000000000000000000000300FF0F0F0F0F0F0F0F000000000000000000000300F3D
:2025A000F0F0F0F0F0F0F0F000000000000000400000700BF0F0F0F0F0F0F0F0F0F0F0F0A0
:2025C000F0F0F0C00000300F70F0F0F0F0F0F0F0F0F0F0F0F0F0F0F0C000700F0F38F0F046
:2025E000F0F0F0F0A0F0F0F0F0F0F0F0C000300F0F0FF0F0F0F0F0F00F0F0C000F0F1C9634
:20260000F00010D0E00F0F78F0F0F01E870F0F0F0F0F0F1CE0000080F0C10F0F0C870F0FA9
:20262000F0C0073C0C000F0E6000000000D0830F0F0F0F0FF0F0F0F0F0F0C10F70000000A0
:202640000000F0B40B0F0F0FF0F0F0F0F0F0E10F60000000000030F010870F78F0F0F0F0B0
:20266000F0F0F00F680000000000000000000000F0F0F0F0F0F0F00F68000000000000000C
:2026800000000000F0F0F0F0F0F0F00F680000000000000000000000F0F0F0F0F0F0F00F94
:2026A00070800070F0F0F0F0F0F0F0F0F0F0F0F0F0F0F00F780000F0F0F0F0F0F0F0F0F0B3
:2026C000F0F0F0F0F0F0F00F788010F0F0E19687870F0F0FF0F0F0F0F0F0F00F788010F02A
:2026E000F0C30B0F0F0F0F0FF0F0F0F0F0F0F00F780030F0870F0F0F0F0F1EB4F0F0F0F036
:20270000F0F0F00F780030E1070F0F0F1EF0E1F0F0F0F0F0F0F0E10F780030E10F0F0FF008
:20272000E1F0F0F0F0F0F0F0F0F0E10FF08030C10F8000F0F0F0F0F0F0F0F0F0F0F0E10F28
:20274000F0C030C31E70F0F0F0F0F0F0F0F0F0F0F0F0C10EE0C030C11EF0F0F0F0F0F0F0FA
:20276000F0F0F0F0F0F0C30F708030C31CF0F0F0F0F0F0F00000000000000000000000C197
:20278000F0F0F0F0F0F0F0F000000000000000000000006178F0F0F0F0F0F0F00000000050
:2027A000000000309000006070F0F0F0F0F0F0F0E00070E0000000F0F0C0006010F0F0F0E9
:2027C000F0F0F0F0F0F0E020000070217080003038F0F0F0F0F0F0F00C30F0F0C010C1D261
:2027E000B4800030F0F0F0F0F0F0F0F00F0F0830C03012F0F0C0007090F0F0E030E07000BD
:202800000F0F0F0EC03050F080C0007096F0E01000031C0F070F0F0FC010F0F0C2C000F0A3
:20282000070F0F0F0F8610300338070F401092F0D2C000708708000010F0F0F0F0F0C30F49
:20284000481096F0D2C00070F0F0A01010000000F0F0C10F081096F0C2C000000000000028
:2028600000000000F0F0E10F083012F0C2C000000000000000000000F0F0F00F2C1096F02B
:20288000C32C00000000000000000000F0F0F00F0C1096F0C328800000000000000000005D
:2028A000F0F0F0070C1092F0C33CC06000200010F06020F0F0F0F00F2C1082F0C31CF0F0A8
:2028C000F0F0F0F0F0F0F0F0F0F0F0870C1082F0C31EF0F0F0F0F0F0F0F0F0F0F0F0F00F73
:2028E0000C7082F0F00E0F0C0F0F0F0F0F0F0F0FF0F0F0872C3087F0F0F0F0F0070F0E0F3C
:202900004B080EF0F0F0F08708708370F0F0F0F0F0F0F0F0F0F0F0F0F0F0F0870C7007701A
:20292000F0F0F0F0F0F0F0F0F0F0F0F0F0F0F00F0C300370F0F0F0F0F0F0F0F0F0F0F0F089
:20294000F0F0F00F0C700FF0F0F0F0F0F0F0F0F0F0F0F0F0F0F0F00F0C1087F0F0F0F0F0AB
:20296000F0F0F0F0F0F0F0F0F0F0F00F0C108778F0F0F0F0F0F0F0F0F0F0F0F0F0F0F00FBE
:2029800048108778F0F0F0F0F0F0F0F0F0F0F0F0F0F0E10F08108778F0F0F0F0F0F0F0F039
:2029A000F0F0F0F0F0F0E10F481087F0F0F0F0F0F0F0F0F0F0F0F0F0F0F0E10FC0308778B9
:2029C000F0F0F0F0F0F0F0F0F0F0F0F0F0F04B0F48108778F0F0F0F0F0F0F0F0F0F0F0F0E6
:2029E000F0870F0FC01087F0F0F0F0F0F0F0F0F0F0F0F0F00F0F0F1C80308778F0F0F0F003
:202A0000F0F0F0F0F0F0F0F00F0F0F58003087F0F0F0F0F0F0F0F0F0F0F0F0F00F1E0EC0CF
:202A200000108378F0F0F0F0F0F0F0F0F0F0F0F0B4F01CE000108778F0F0F0F0F0F0F0F01C
:202A4000F0F0F0F0C04030000010875AF0F0F0F0F0F0F0F0F0F0F0F0000000000010873C82
:202A6000F0F0F0F0F0F0F0F0F0F0F0F0000000000010871EF0F0F0F0F0F0F0F0F0F0F0F021
:202A8000F0F0F0F0C010831EF0F0F0F0F0F0F0F0F0F0F0F08310E178C0100F1EF0F0F0F01C
:202AA000F0F0F0F0F0F0F0F00F0F0F1CC010C30EF0F0F0F0F0F0F0F0F0F0F0F01E5A0F3CA9
:202AC000C010C30F70F0F0F0F0F0F0F0F0F0F0F0F0F00F3CC010E10F0F3CF0F0F0F0F0F0BE
:202AE000F0F0F0F0F0F0C30FC010F0870F0F0F0F0C70F0F0F0F07007F0F0870FC000F0C345
:202B00000F0F0F0F0F0F1880830F0F0FF0F0870EC00070F0F0C0E0100E03010FF060F0007D
:202B2000F0F0870EC00030F0F0F0F0F0E050C00010F0F000F0F0E10FC0000050F0F070F080
:202B400070F0B0F0C0301080F0F0E10EC0000000000000000000000000000000F0F0F0F0A6
:202B6000F0F0F0F0F0F0F0F0F0F0F0F0F0F0F000F0F0F0F0F0F0F0F0F0F0F0F0F0F0F0F045
:202B8000F0B0F080F0F0F0F0F0F0F0F0F0F0F0F0F0F0F0F0F0B0F080F0F0F0F0F0F0F0F095
:202BA000F0F0F0F0F0F0F0F0F0B0F080F0F0F0F0F0F0F0F0F0F0F0F0F0F0F0F0F0F0F000B5
:202BC000F0F0F0F0D0D07030F0B0F0F0F0F0F0F0F0F0E08083080C3010A0F070F0F0F0F0DE
:202BE000F0F0F0F0F0F0F0800B081CF0F0E0F0F0F0F0F0F0F0F0E0F0E0F0E080F0F0F0F096
:202C0000A0A050F0D0F0C00F080030F0E118F000002000001000100080000000D0F0F0F034
:202C2000C13CA0000000807000002080400010F0F0F0F0F0C03080000000000000000000F7
:202C4000000000000000000000000000000000000000000000000000000000000000000074
:202C60001000000000000000000000000000000000000000F0F0F0F0F0E00000D0000000E4
:202C800000000010F0F0F0F0F0E08030F0F0F0F0F0F0F00000000010D0F0B0F0F0B0900FA5
:202CA0000F38F0F0F0C010F0F0C0001030A10EF08000C0870F0EF0F0F0811EF0F0D000307B
:202CC000F06178F00F0F1C30A00F7870F0F0F0E168780010C094F0F0F0F0F0F0F0F08770CE
:202CE000F0F0F0F0871CC010F0A470F0F0F0F0F0F0F0C370F0F0F0F0C31CC010F070F0E13A
:202D0000F0F0F0F0F0F0F024B0F0F0F0F0848000F0800F0FF0F0F0F0F0F0F086F0F0F0F027
:202D2000F086C00070E0030CF0F0F0F0F0F0F0D070F0F0F0F087000030F0F0F0F0F0F0F027
:202D4000F0F0F0F0F0F0F0F0F083080000000000F0F0F0F0F0F0F0F0F0F0F0F0F0830800BD
:202D600000000000F0F0F0F0F0F0F0F0F0F0F0F0F08608000040D030F0F0F0F0F0F0F0F0D5
:202D8000F0F0F0F0F086080070F0F0F0F0F0F0F0F0F0F0F0F0F0F0F0F0874000F0840F1823
:202DA000F0F0F0F0F0F0F0F0F0F0F0F0F0874000C10F0F0FF0F0F0F0F0F0F0F0F0F0F0F0EE
:202DC000F086C000C30F0F0FF0F0F0F0F0F0F0F0F0F0F0F0F086C010830E0083F0F0F0F073
:202DE000F0F0F0F0F0F0F0F0F086201083080F3CF0F0F0F0F0F0F0F0F0F0F0F0F086001011
:202E00000378F0F0F0F0F0F0F0F0F0F0F0F0F0F0F09440300378F0F0F0F0F0F0F0F0F0F048
:202E2000F0F0F0F0F086201007F0F0F0F0F0F0F0F0F0F0F0F0F0F0F0F08700100FF0F0F0AF
:202E4000F0F0F0F0F0F0F0F0F0F0F0F0F08748100FF0F0F0F0F0F0F0F0F0F0F0F0F0F0F044
:202E6000F08760000FF0F0F0F0F0F0F0F0F0F007F0F0F0F0F08748210FF0F0F0F0F0F0F0C6
:202E8000F0E0072870F0F0F0F08700210FF0F0F0F0F0F0F0830F1070F0F0F0F0C10FA02159
:202EA0000FF0F0F0F0F0F0810F0E50F0F0F0F0F0830EC0210F70F0F0F0430F0F0EF0F0F0C5
:202EC000F0E00F0F0F3CC0200F78F0F00F0B1CF0F0F0F0810F0F0F4070F000200F78F0C3D4
:202EE0000F0F30D0F0F0C30F0F0F1EB0F0E000200F78E10FC060301080F0070010E0C00028
:202F0000000000100F0F0F0F00000000D0508600C0000000000000300F0D0F0F00003070F5
:202F2000F0F0E0000000000000000030F0F0F0F000000000000000000000000000000000E1
:202F4000000000000000000000000000000000703CF0F0F0F0F0F0F0F0F0F0F0F0F0F0F0B5
:202F6000300000303CF0F0F0F0F0F0F00F3CF0F0F0F0F0F0F00000701CF0F0F0F0F0F0F02E
:202F80000F0F0F0F0F860F0E70C000603CF0F0F0F0F0F0F00F0F0F0F0F0F0F0F3CC01070F3
:202FA00034F0F0F0F0F0F0F0870B0F0F0F0F1EC334C01070B4F0F0F0F0F0F0F0F0F0E10F16
:202FC0000F78F0E11EC00070B4F0F0F0F0F0F0F0F0F08778F0F0F0E10EC00070B4F0F0F0B5
:202FE000F0F0F0F0F0F0F0F0F0F0F0E10FC000F034F0F0F0F0F0F0F0F0F0F0F0F0F0F0E1AC
:203000000FC000F03CF0F0F0F0F0F0F0F0F0F0F0F0F0F0E10EC000603CF0F0F0F0F0F0F0BA
:20302000F0F0F0F0F0F0F0E10EC000F03CF0F0F0F0F0F0F0F0F0F0F0F0F0F0E10FC000F065
:2030400038F0F0F0F0F0F0F0F0F0F0F0F0F0F0E10FC000F03CF0F0F0F0F0F0F0F0F0F0F0EC
:20306000F0F0F0E10CC000E03CF0F0F0F0F0F0F0F0F0F0F0F0F0F0A50CC000E03CF0F0F03A
:20308000F0F0F0F0F0F0F0F0F0F0F0C30EC000E03CF0F0F0F0F0F0F0F0F0F0F0F0F0F0C350
:2030A0000FC000703CF0F0F0F0F0F0F0F0F0F0F0F0F0F0870FC000600EF0F0F0F0F0F0F021
:2030C00000F0F0700F3CC30F1EC000C10F2810E0D0B0F0F008F0D00F0F0F0F0F1CC000C1AD
:2030E0000F7883690F070F0F04070F0C0F1EC3E070800050870F1050C010F0F00F0F3CC033
:203100000F0F0F3CF0000070920F00388030F0F0E0B0F0D0F0F0F0E0C0000000F0F0F0F0FD
:20312000F0F0F0F000000000000000000000000000000000000000000000000000000000CF
:203140000000000000000000000000007070F0600070E0303060308000208000008000005F
:20316000F0F0F0F0F0F0F0F0F0F0F0F0F0F0F0F0F0E080002020F0F0F0F0F0F0F0F0F0F05F
:20318000F0F0F0F0F0F080001E000E50C0000F0F0F0F081060010F0F00F0C0000F0F0F0F14
:2031A000070F0F0F0F0F0F0F090F0F0F0FF0C000F0F0F0F0E10F0C87210D0F04F0F0F0F066
:2031C000C370E080F0F0F0F0E0F0F0F0F0F0F0F0F0F0F0F0E108D000F0F0F0F0F0F0F0F033
:2031E000F0F0F0F0F0F0F0F0F00C7000F0F0F0F0F0F0F0F0F0F0F0F0F0F0F0F0F00E7080F5
:20320000F0F0F0F0F0F0F0F0F0F0F0F0F0F0F0F0F03C70C0F0F0F0F0F0F0F0F0F0F0F0F012
:20322000F0F0F0F0F00E70C0F0F0F0F0F0F0F0F0F0F0F0F0F0F0F0F0F00770C0F0F0F0F0B9
:20324000F0F0F0F0F0F0F0F0F0F0F0F0F08778C0F0F0F0F0F0F0F0F0F0F0F0F0F0F0F0F07F
:20326000F08738C0F0F0F0F0F0F0F0F0F0F0F0F0F0F0F0F0F08738C0F0F0F0F0F0F0F0F0F0
:20328000F0F0F0F0F0F0F0F0F0C31CC0F0F0F0F0F0F0F0F0F0F0F0F0F0F0F0F0F0C318C094
:2032A000F0F0F0F0F0F0F0F0F0F0F0F0F0F0F0F0F0E11CC0F0F0F0F0F0F0F0F0F0F0F0F021
:2032C000F0F0F0F0F0E118C0F0F0F0F0F0F0F0F0F0F0F0F0F0F0F0F0F0E10EC0F0F0F0F026
:2032E000F0F0F0F0F0F0F0F0F0F0F0F0F0E10FC0F0F0F0F0F0F0F0F0F0F0F0F0F0F0F0F0EE
:20330000F0E10FC0F0F0F0F0F0F0F0F0F0F0F0F0F0F0F0F0F0C30FC0F0F0F0F0F0F0F0F00B
:20332000F0F0F0F0F0F0F0F0F0860FC0F0F0F0F0F0F0C30F708030C31CF0F0F0F0F0F0F0C7
:20334000F0F0F0F0F0F0C30EF0C030C33CF0F0F0F0F0F0F0F0F0F0F0F0F0870EF08030C3F5
:203360001EF0F0F0F0F0F0F0F0F0F0F0F0F0070EF08030871EF0F0F0F0F0F0F0F0F0F0F055
:20338000F0F0070FF08030871EF0F0F0F0F0F0F0F0F0F0F0F0F00F0FF08030871EF0F0F08F
:2033A000F0F0F0F0F0F0F0F0F0F00F0FF0C030071EF0F0F0F0F0F0F0F0F0F0F0F0F00F0C3F
:2033C000F0C0300F1EF0F0F0F0F0F0F0F0F0F0F0F0F00F0CF000300F1EF0F0F0F0F0F0F0B8
:2033E000F0F0F0F0F0F00F0CC00030C30FF0F0F0F0F0F0F0F0F0F0F0F0F00F0CC00030C352
:203400000F78F0F0F0F0F0F0F0F0F0F0F0F00F1E800030C30FF0F0F0F0F0F0F0F0F0F0F0E6
:20342000F0F00F1E000010C10F78F0F0F0F0F0F0F0F0F0F0F0F00F1E800000E10F78F0F0F2
:20344000F0F0F0F0F0F0F0F0F0F0071E800000E00FB4F0F0F0F0F0F0F0F0F0F0F0F08718E5
:20346000C00000E11EF0F0F0F0F0F0F0F0F0F0F0F0F0870CC00000C11EF0F0F0F0F0F0F09B
:20348000F0F0F0F0F0F08738C00000C33CF0F0F0F0F0F0F0F0F0F0F0F0F08338F040100FD4
:2034A000780F0F0F0F7890F0F0F0F0F0F0F0C33CF0C010070F0F0F0F0F0F0FB00E7070F003
:2034C000F0F0C33CF0C0500F0F0F0F0F0F0F0FD0F0F0E0070F0F0F78F04030070F10F0F0F3
:2034E000F0F0F0F090F080F0870F0F70F0803060F0F0F0F0F0F0F0F0F0F0F0F0F0F0F0F007
:20350000F08030F0F0F0F0F0F0F0F0E10000000000000000000000000000000000000000AA
:203520000000000000000000000000000000000000000000000040203000000040F010F0CB
:20354000F0F0F0F0F0B0F0F0001080B0D0F0F0F0F0F0F0F0F0F0F0F0F0F0F0E10030F0F00A
:20356000E0B0F080030D0F70F0870F3CF0F0F0E100F0F0F0E0010F0F0F0F0F0F0F0F0F0F02
:203580000E78F0F000E070800D0F0F0F0F0F0F0F0F870F0F0F1EF0F000F060E10F410F1E10
:2035A00070F0F0F0F0C378F0C30F78F000F0A00770F0F0F0F0F0F0F0F0F0F0F0F00F1CF014
:2035C00000E02178F0F0F0F0F0F0F0F0F0F0F0F0F0F00EF000F0E178F0F0F0F0F0F0F0F08B
:2035E000F0F0F0F0F0F0C1F000F0A078F0F0F0F0F0F0F0F0F0F0F0F0F0F0F0F000F0057805
:20360000F0F0F0F0F0F0F0F0F0F0F0F0F0F0F0F000F00578F0F0F0F0F0F0F0F0F0F0F0F0FD
:20362000F0F0F0F000F0043CF0F0F0F0F0F0F0F0F0F0F0F0F0F0F0F000F0803CF0F0F0F02E
:20364000F0F0F0F0F0F0F0F0F0F0F0F020F0803CF0F0F0F0F0F0F0F0F0F0F0F0F0F0F0F05E
:2036600020F0871CF0F0F0F0F0F0F0F0F0F0F0F0F0F0F0F000F0871CF0F0F0F0F0F0F0F084
:20368000F0F0F0F0F0F0F0F010F0873CF0F0F0F0F0F0F0F0F0F0F0F0F0F0F0F010F0873C24
:2036A000F0F0F0F0F0F0F0F0F0F0F0F0F0F0F0F010F0073CF0F0F0F0F0F0F0F0F0F0F0F087
:2036C000F0F0F0F030F08778F0F0F0F0F0F0F0F0F0F0F0F0F0F0F0F030F08778F0F0F0F02C
:2036E000F0F0F0F0F0F0F0F0F0F0F0F010F08370F0F0F0F0F0F0F0F0F0F0F0F0F0F0F0F097
:2037000010E082F0F0F0F0F0F0F0F0F0F0F0F0F0F0F0F0F0F0F0E10FC000000000000000B7
:203720000000000000000000F0F0E10F1CF0F0F0F0F07030000000000020F0F0F0F0E1C3C9
:203740000FF0F0F0F0F0F0F0F0C0000010F0E0F0F0F0F0960F1EF0F0F0F0F0F0F0C0000067
:2037600030F0E00FF0F0F0F04B0F0F0F0F0F0F38B4F00000F0F0E082F0F0F0F0D20F0F0FF8
:203780000F0F0F0F1C70000070308358F0F0F0F0E16830F0F0F0F07087708010A1600FF0F6
:2037A000F0F0F0F0F0F0F0F0F0F0F0F08330C010838378F0F0F0F0F0F0F0F0F0F0F0F0F098
:2037C000C330C010C31CF0F0F0F0F0F0F0F0F0F0F0F0F0F0C238C01083F0F0F0F0F0F0F04A
:2037E000F0F0F0F0F0F0F0F0C238C010C3F0F0F0F0F0F0F0F0F0F0F0F0F0F0F0C270C010AA
:2038000052F0F0F0F0F0F0F0F0F0F0F0F0F0F0F0C270C01092F0F0F0F0F0F0F0F0F0F0F062
:20382000F0F0F0F0C270C010D2F0F0F0F0F0F0F0F0F0F0F0F0F0F0F0C230C03096F0F0F09C
:20384000F0F0F0F0F0F0F0F0F0F0F0F08270C03082F0F0F0F0F0F0F0F0F0F0F0F0F0F0F0B4
:203860008470C03007F0F0F0F0F0F0F0F0F0F0F0F0F0F0F0A4F0C03007F0F0F0F0F0F0F032
:20388000F0F0F0F0F0E010F0D0F0C01092F0F0F0F070F00F0F0F0C07070F18F048F0C010F0
:2038A00002F0F0F0B0D20F0F0F0F0F0F0F0F000018F0C01012F0F0F0870F0F38F0E0070DC1
:2038C00080031E30F0B0000052F0F0F007281CF0F0F0F0C0F00D90F0F0B0001052F0F0F03B
:2038E000F0F0F0F0F0F0E0F0F0F0F0F0E040C00052F0F0F000000000000000000000000096
:203900000000000006F0F0F00000000000000000000000000000000016F0F0F0F0F0F0D04B
:20392000C000000020F0F0802040000016F0F0F078F0F0F0F0F0F0F0F0F0F0F0F0C0800009
:2039400016F0F0F00C30F0F0F0F0F0F0F0F0F0F0F0A0800014F0F0F00F0D0F0C030B0C069A
:203960000030F082F090000034F0F0F0870F0F0F0F070F0F0F0F0F0F0F1C001034F0F0F0BE
:20398000F0F0E0070F0F78F0F0F0E100C11800103CF0F0F0F0F0F0F0F0F0F0F0F0F0F07064
:2039A000615880103CF0F0F0F0F0F0F0F0F0F0F0F0F0F03CF018C0003CF0F0F0F0F0F0F092
:2039C000F0F0F0F0F0F0F038F008800038F0F0F0F0F0F0F0F0F0F0F0F0F0F0B4F00CC010CF
:2039E00038F0F0F0F0F0F0F0F0F0F0F0F0F0F092B0B4C00178F0F0F0F0F0F0F0F0F0F0F0F0
:203A0000F0F0F0C23094800178F0F0F0F0F0F0F0F0F0F0F0F0F0F0C35084400178F0F0F017
:203A2000F0F0F0F0F0F0F0F0F0F0F0C118B4802078F0F0F0F0F0F0F0F0F0F0F0F0F0F0E190
:203A40001CF0C03078F0F0F0F0F0F0F0F0F0F0F0F0F0F0F01EF0C02070F0F0F0F0F0F0F0F4
:203A6000F0F0F0F0F0F0F0E01EF0C01078F0F0F0F0F0F0F0F0F0F0F0F0F0F0F00EE08010F2
:203A80000CF0F0F0F0F0F0F0F0F0F0F0F0F0F0F00FC000100FF0F0F0F0F0F0F0F0F0F0F0CC
:203AA000F0F0F0F00FC000104378F070F0F0F0F0F0F0F0F0F0F0F0F0870800007086700314
:203AC000F0F0F0F0F0F0F0F0F0F0F0F0874800003084810FF0F0F0F0F0F0F0F0F0F0F0F053
:203AE000873C800030921090F0F0F0F0F0F0F0F0F0F0F0F0833C80000000000000000000A2
:203B000000000000000000000000000000000000F0F0F010B0F04070E080C070F0F0F0F025
:203B2000F0F0F0F0F0C08010F0F0F0F0F0F0D0F0F0F0F0F0F084C00F18F0F0C0800EF0E00C
:203B4000100B0ED2870F0F0F0F0F0F0F20030F0F0C070F0D14F0A0F08080070F0F0F0F0F24
:203B6000F0F0F0F0F0F0F0F0F0F0F0F0F0C00EF0F0F0F0D0F0F0F0F0F0F0F0F0F0F0F0F077
:203B8000F0F0F0F0F0F0F0F0F0F0F0F0F0F0F0F0F0F0F0F0F0F0F0F0F0F0F0F0F0F0F0F025
:203BA000F0F0F0F0F0F0F0F0F0F0F0F0F0F0F0F0F0F0F0F0F0F0F0F0F0F0F0F0F0F0F0F005
:203BC000F0F0F0F0F0F0F0F0F0F0F0F0F0F0F0F0F0F0F0F0F0F0F0F0F0F0F0F0F0F0F0F0E5
:203BE000F0F0F0F0F0F0F0F0F0F0F0F0F0F0F0F0F0F0F0F0F0F0F0F0F0F0F0F0F0F0F0F0C5
:203C0000F0F0F0F0F0F0F0F0F0F0F0F0F0F0F0F0F0F0F0F0F0F0F0F0F0F0F0F0F0E0F0F0B4
:203C2000F0F0F0F0F0F0F0F0F0F0F0F0F0F0F0F0F0E0F0F0F0F0F0F0F0F0F0F0F0F0F0F094
:203C4000F0F0F0F0F0E0B4E13CF0F0F0F0F0F0F0F0F0F0F0F0F0F0F0F0F0D2C158F0F0F058
:203C6000F0F0F0F0F0F0F0F0F0F0F0F0F0F0E13CF0C310D04000F0F0F0F0F0F0F0F0F0F0D4
:203C8000F0F0F03CF0C10E07030F0E01F0F0F0F0F0F0F0F0F0F0F01EF0D084E0600F0F0F12
:203CA000F0F0F0F0F0F0F0F0F0F0F0837080000000308480F0F0F0F0F0F0F0F0F0F0F0C3FA
:203CC000788000000010070FF0F0F0F0F0F0F0F0F0F0F0C33C0000000000F0F0F0F0F0F0D7
:203CE000F0F0F0F0F0F0F0E10E00000000000000F0F0F0F0F0F0F0F0F0F0F0E10F00000005
:203D000000000000F0F0F0F0F0F0F0F0F0F0F0F00F08000020004000F0F0F0F0F0F0F0F06C
:203D2000F0F0F0F00F680000F0F0F0F0F0F0F0F0F0F0F0F0F0F0F0F087680000F0F0E0C0DD
:203D4000F0F0F0F0F0F0F0F0F0F0F0F083780010F0F0800DF0F0F0F0F0F0F0F0F0F0F0F06B
:203D600081780000F0F0830FF0F0F0F0F0F0F0F0F0F0F0F0C1780010E0E030F0F0F0F0F0AF
:203D8000F0F0F0F0F0F0F0F0C1688010C016F0F0F0F0F0F0F0F0F0F0F0F0F0F0E1380010CB
:203DA000D038F0F0F0F0F0F0F0F0F0F0F0F0F0F0E1080010F078F0F0F0F0F0F0F0F0F0F01A
:203DC000F0F0F0F0A1780000B078F0F0F0F0F0F0F0F0F0F0F0F0F0F0E1080000E078F0F0A1
:203DE000F0F0F0F0F0F0F0F0F0F0F0F081180010F070F0F0F0F0F0F0F0F0F0F0F0F0F0F05A
:203E0000A10C0000C070F0F0F0F0F0F0F0F0F0F0F0F0F0F0A4180000C070F0F0F0F0F0F019
:203E2000F0F0F0F0F0F0F0F086180000C070F0F0F0F0F0F0F0F0F0F0F0F0F0F08648000046
:203E4000E170F0F0F0F0F0F0F0F0F0F0F0F0F0F006180010E170F0F0F0F0F0F0F0F0F0F012
:203E6000F0F0F0D00F080010C1F0F0F0F0F0F0F0F0F0F0F0F0F0C0200F48001083F0F0F0F0
:203E8000F0F0F0F0F0F0B0D0F08000870FC0000083F0F0F00F2070F0C0F021810F0F38F0C2
:203EA000F000002083F0F0F00F0F0F0C38870F0F0D1CF0F090000020C3F0F0F0F0F0F0F07D
:203EC000F0F0F0F0F0C0C040000000308170F0F00000000000C06000000000000000001041
:203EE000A170F0F0FF00FF00FF00FF00FF00FF00FF00FF00FF0000007700FF00FF00FF0066
:203F0000FF00FF00FF00FF00FF00FF00FF00FF00FF00FF00FF00FF00FF00FF00FF00FF00B1
:203F2000FF00FF00FF00880000003300FF00FF00FF00FF00FF00FF00FF00FF00FF00FF00D3
:203F4000FF00FF00FF00FF00FF00FF00FF00FF00FF00FF00FF00EE00003000F03380FF00AC
:203F6000FF00FF00FF00FF00FF00FF00FF00FF00FF00FF00FF00FF00FF00FF00FF00FF0051
:203F8000FF00FF00FF00FF00880000F000F03380FF00FF00FF00FF00FF00FF00FF00FF0012
:203FA000FF00FF00FF00FF00FF00FF00FF00FF00FF00FF00FF00FF00FF00003000F000F0FE
:203FC00011C0FF00FF00FF00FF00FF00FF00FF00FF00FF00FF00FF00FF00FF00FF00FF001F
:203FE000FF00FF00FF00FF00FF00CC00007000F000F011C0FF00FF00FF00FF00FF00FF00DF
:20400000FF00FF00FF00FF00FF00FF00FF00FF00FF00FF00FF00FF00FF00FF00881000F026
:2040200000F000F011C0FF00FF00FF00FF00FF00FF00FF00FF00FF00FF00FF00FF00FF00DC
:20404000FF00FF00FF00FF00FF00FF00FF00003000F000F000F000C0FF00FF00FF00FF00AB
:20406000FF00FF00FF00FF00FF00FF00FF00FF00FF00FF00FF00FF00FF00FF00FF00CC0083
:20408000007000F000F000F000C0FF00FF00FF00FF00FF00FF00FF00FF00FF00FF00FF002B
:2040A000FF00FF00FF00FF00FF00FF00FF00FF00881000F000F000F000F000E0FF00FF00D2
:2040C000FF00FF00FF00FF00FF00FF00FF00FF00FF00FF00FF00FF00FF00FF00FF00FF00F0
:2040E000FF00003000F000F000F000F000E0FF00FF00FF00FF00FF00FF00FF00FF00FF00FA
:20410000FF00FF00FF00FF00FF00FF00FF00FF00FF00FF00007000F000F000F000F000E099
:20412000FF00FF00FF00FF00FF00FF00FF00FF00FF00FF00FF00FF00FF00FF00FF00FF008F
:20414000FF00FF00EE00007000F000F000F000F000F07700FF00FF00FF00FF00FF00FF00E2
:20416000FF00FF00FF00FF00FF00FF00FF00FF00FF00FF00FF00CC1000F000F000F000F0AE
:2041800000F000F07700FF00FF00FF00FF00FF00FF00FF00FF00FF00FF00FF00FF00FF00D5
:2041A000FF00FF00FF00FF00881000F000F000F000F000F000F07700FF00FF00FF00FF0058
:2041C000FF00FF00FF00FF00FF00FF00FF00FF00FF00FF00FF00FF00FF00883000F000F054
:2041E00000F000F000F000F03300FF00FF00FF00FF00FF00FF00FF00FF00FF00FF00FF00D7
:20420000FF00FF00FF00FF00FF00FF00007000F000F000F000F000F000F03380FF00FF00E3
:20422000FF00FF00FF00FF00FF00FF00FF00FF00FF00FF00FF00FF00FF00FF00EE0000702E
:2042400000F000F000F000F000F000F03380FF00FF00FF00FF00FF00FF00FF00FF00FF0014
:20426000FF00FF00FF00FF00FF00FF00FF00CC0000F000F000F000F000F000F000F0118058
:20428000FF00FF00FF00FF00FF00FF00FF00FF00FF00FF00FF00FF00FF00FF00FF00FF002E
:2042A000CC0000F000F000F000F000F000F000F011C0FF00FF00FF00FF00FF00FF00FF00D8
:2042C000FF00FF00FF00FF00FF00FF00FF00FF00FF00CC1000F000F000F000F000F000F06B
:2042E00000F011C0FF00FF00FF00FF00FF00FF00FF00FF00FF00FF00FF00FF00FF00FF000B
:20430000FF00FF00881000F000F000F000F000F000F000F011C0FF00FF00FF00FF00FF00AB
:20432000FF00FF00FF00FF00FF00FF00FF00FF00FF00FF00FF00883000F000F000F000F010
:2043400000F000F000F000C0FF00FF00FF00CC007700FF00FF00FF00FF00FF00FF00FF0094
:20436000FF00FF00FF00FF00883000F000F000F000F000F000E00000000000000000FF00FA
:2043800088000000FF00FF00FF00FF00FF00FF00FF00FF00FF00FF00FF00007000F000F050
:2043A00000F000F000F00000007700FF00FF00CC0000007700EE1100FF00FF00FF00FF007A
:2043C000FF00FF00FF00FF00FF00FF00007000F000F000F000F000C0007700FF00FF00FF7F
:2043E00000FF001100FF00FF0088FF00FF00FF00FF00FF00FF00FF00FF00FF00FF000070C1
:2044000000F000F000F000E0003300FF00FF00FF00FF00CC007700FF00FF00FF1100FF006D
:20442000FF00FF00FF00FF00FF00FF00FF00EE00007000F000F000F000C000FF00FF00FF98
:2044400000FF00FF001100FF00FF00FF00FF0088FF00FF00FF00FF00FF00FF00FF00FF00D1
:20446000EE00007000F000F000F0003300FF00FF00FF00FF00CC007700FF00FF00FF00FFA0
:2044800000EE7700FF00FF00FF00FF00FF00FF00FF00EE0000F000F000F000E0007700FFAA
:2044A00000FF00FF00FF009900FF00FF00FF00FF00FF00FF3300FF00FF00FF00FF00FF003E
:2044C000FF00FF00CC0000F000F000F000C000FF00FF00FF00FF00EE003300FF00FF00FF68
:2044E00000FF00FF00FF1188FF00FF00FF00FF00FF00FF00FF00EE0000F000F000F000B3BC
:2045000000FF00FF00FF00FF00CC00FF00CC003300FF00FF00FF00FF00CCFF00FF00FF0010
:20452000FF00FF00FF00FF00CC0000F000F000F0007700FF00FF00FF00FF001100FF00CC94
:20454000001100FF00FF00EE007700EE7700FF00FF00FF00FF00FF00FF00CC0000F000F0DC
:2045600000E0007700FF00FF00FF00EE007700FF0088001100FF00FF00EE003300FF330099
:20458000FF00FF00FF00FF00FF00FF00CC0000F000F000C000FF00FF00FF00FF00CC00FFEE
:2045A00000FF0088000000FF00FF00EE003300FF1188FF00FF00FF00FF00FF00FF00CC00F7
:2045C00000F000F0009100FF00FF00FF00FF009900FF00FF00CC000000FF00FF00EE00110E
:2045E00000FF1188FF00FF00FF00FF00FF00FF00CC0000F000F000B300FF00FF00FF00FFCE
:20460000003300FF00FF00CC0000007700FF00EE001100FF11CCFF00FF00FF00FF00FF0051
:20462000FF00CC0000F000F0007700FF00FF00FF00EE0077008800FF00CC0000007700FF2D
:2046400000EE001100FF00CCFF00FF00FF00FF00FF00FF00CC0000F000E0007700FF00FF85
:2046600000FF00CC00FF0088007700EE0000007700FF00EE001100FF00EEFF00FF00FF0024
:20468000FF00FF00FF00CC0000F000E000FF00FF00FF00FF009900FF0000007700EE000088
:2046A000003300FF00FF001100FF00EEFF00FF00FF00FF00FF00FF00CC0000F000C000FF56
:2046C00000FF00FF00FF003300FF0000003300FF0000003300FF00FF001100FF00EE7700D3
:2046E000FF00FF00FF00FF00FF00EE0000F000D100FF00FF00FF00EE007700FF000000337C
:2047000000FF0000001100FF00FF001100FF00777700FF00FF00FF00FF00FF00CC0000F0D6
:20472000009100FF00FF00FF00EE00FF00FF0088003300FF0000001100FF00FF000000FF37
:2047400000337700FF00FF00FF00FF00FF00EE0000F000B300FF00FF00FF00CC00FF00FF5C
:204760000088001100FF0088001100FF00FF000000FF00333300FF00FF00FF00FF00FF00AA
:20478000EE00007000B300FF00FF00FF009900FF00FF00CC001100FF0088000000FF00FF12
:2047A000008800FF00333388FF00FF00FF00FF00FF00EE000070003300FF00FF00FF00BB40
:2047C00000FF00FF00CC000000FF00CC000000FF00FF008800FF00333388FF00FF00FF00D4
:2047E000FF00FF00FF000070007700FF00FF00FF0077009900FF00CC000000FF00CC000032
:2048000000FF00FF008800FF00331188FF00FF00FF00FF00FF00FF000070007700FF00FF68
:2048200000EE0077008800FF00EE000000FF00CC0000007700FF00CC00FF00333388FF00A5
:20484000FF00FF00FF00FF00FF000030007700FF00FF00EE00FF0000007700EE00000077EF
:2048600000EE000000FF00FF00FF00FF00BB1188FF00FF00FF00FF00FF00FF0088200077E1
:2048800000FF00FF00CC00FF0000007700EE0000007700FF001100FF00FF00FF00FF00BBAC
:2048A0001188FF00FF00FF00FF00FF00FF008820007700FF00FF00DD00FF0088007700FF6E
:2048C0000000003300FF00FF00FF00FF00FF00FF00991188FF00FF00FF00FF00FF00FF007F
:2048E0008800007700FF00FF009900FF0088003300FF0000003300FF00FF00FF008800FFB2
:2049000000FF00991188FF00FF00FF00FF00FF00FF00CC0000FF00FF00FF00BB00FF00CC1D
:20492000003300FF0088003300FF00FF00CC0000000000FF009911CCFF00FF00FF00FF004F
:20494000FF00FF00CC0000FF00FF00FF003300FF00CC003300FF0088007700FF00EE000074
:2049600000C3000C001100FF11CCFF00FF00FF00FF00FF00FF00EE0000FF00FF00FF00771F
:2049800000FF00CC001100FF00CC00FF00FF00880007000F000F000800FF11CCFF00FF00E3
:2049A000FF00FF00FF00FF00EE0000FF00FF00FF007700FF00EE001100FF00FF00FF00EEB0
:2049C0000021000F000F000F000E003311CCFF00FF00FF00FF00FF00FF00EE00007700FF0D
:2049E00000EE007700FF00EE001100FF00FF00FF0088000F000F000F000F000F001911CC8E
:204A0000FF00FF00FF00FF00FF00FF00EE00007700FF00EE007700FF00EE000000FF00FFE8
:204A200000EE0003000F000F000F000F000F000E1144FF00FF00FF00FF00FF00FF00FF00DE
:204A4000007700FF00EE00FF00FF00FF000000FF00FF0088000F000F000F000F000F000F15
:204A6000000F1100FF00FF00FF00FF00FF00FF00FF00007700FF00CC00FF00FF00FF0000DE
:204A800000FF00FF0003000F000F000F000F000F000F000F1108FF00FF00FF00FF00FF0098
:204AA000FF00FF00007700FF008800FF00FF00FF009900FF00CC0007000F000F000F000F56
:204AC000000F000F000F110CFF00FF00FF00FF00FF00FF00FF00007700CC0000003300FF1E
:204AE00000FF00FF00FF0089000F000F000F000F000F000F000F000F000EFF00FF00FF00AD
:204B0000FF00FF00FF00FF000033001100FF008800FF00FF00FF00EE0003000F000F000FB3
:204B2000000F000F000F000F000F000F7700FF00FF00FF00FF00FF00FF008822007700FF8A
:204B400000EE007700FF00FF00CC000F000F000F000F000F000F000F000F000F000F330855
:204B6000FF00FF00FF00FF00FF00FF00882200FF00FF00FF003300FF00FF0089000F000FBC
:204B8000000F000F000F000F000F000F000F00001100FF00FF00FF00FF00FF00FF00880019
:204BA00000FF00FF00FF00BB00FF00EE0003000F000F000F000F000F000F000F000F000FC6
:204BC0003308FF00FF00FF00FF00FF00FF00FF00881100FF00FF00FF009900FF00CC000F98
:204BE000000F000F000F000F000F000F000F000F000F1108FF00FF00FF00FF00FF00FF001B
:204C0000FF00881100FF00FF00FF00CC00FF0089000F000F000F000F000F000F000F000F33
:204C2000000F000F110CFF00FF00FF00FF00FF00FF00FF00883300FF00FF00FF00CC00FFBD
:204C40000003000F000F000F000F0009000F000F000F000F000F110CFF00FF00FF00FF00A8
:204C6000FF00FF00FF00883300FF00FF00FF00EE00EE0007000E000F000F000F00080087D2
:204C8000000F000F000F000F000CFF00FF00FF00FF00FF00FF00FF00003300FF00FF00FFA3
:204CA00000EE0054000F000E0043000F000F00580001000F000F000F000F002CFF00FF0075
:204CC000FF00FF00FF00FF00FF00883300FF00FF00FF00EE0000000F000E0001000F000FF7
:204CE000001C00C00007000F000F000F002CFF00FF00FF00FF00FF00FF00FF00003300FF4D
:204D000000FF00FF00FF00200003000E00CC0043000F001C00E00001000F000F000F000E0F
:204D2000FF00FF001100FF00FF00FF00FF00003300FF00FF00FF00FF00700008002000FFA2
:204D400000000043001C00F000C00043000F000F000EFF00EE001144FF00FF00FF00FF0097
:204D6000003300FF00FF00FF00FF0070001D000000FF008A0000001000F000950000000F4A
:204D8000000F000EFF00001111CCFF00FF00FF00FF00883300FF00FF00FF00FF0030001D09
:204DA00000FF009900CD00F0001000F0009500EE0010000F000EEE0000FF00EEFF00FF0015
:204DC000FF00FF00883300FF00FF00FF00FF0030001D00FF001100CD00F000F000F000958F
:204DE00000CC00440001000ECC1100FF00EEFF00FF00FF00FF00883300FF00FF00FF00FF17
:204E00000054001D00FF003300CD00F000F000F0009500CC00CC00000000CC1100FF00EE5B
:204E2000FF00FF00FF00FF00881100FF00FF00FF00EE0044001500FF00FF00DC00F000F0DF
:204E400000F0009500FF00DD77000000883300FF00EEFF00FF00FF00FF00CC1100FF00FFFB
:204E600000FF00EE0066001100FF00FF00B800F000F000F0009500FF00BB7700FF008833C8
:204E800000FF00EEFF00FF00FF00FF00CC0000FF00FF00FF00EE00FF008800FF00FF0034B9
:204EA00000F000F000F0009500EE00777700FF00007700FF11CCFF00FF00FF00FF00EE0075
:204EC00000FF00FF00FF00CC00FF00CC003300CC00F000F000F000F000C200EE00FF770059
:204EE000EE0000FF00FF11CCFF00FF00FF00FF00EE00007700FF00FF00DD00FF00EE0000C0
:204F0000003000F000F000F000F000E1001100FF7700EE0000FF00FF3388FF00FF00FF0095
:204F2000FF00FF00003300FF00FF00BB00FF00FF00CC007000F000D000F000F000E0007756
:204F400000FF7700CC1100FF00FF7700FF00FF00FF00FF00FF00880000FF00FF003300FFD6
:204F600000FF00FF003000F000E00030003000E000FF00FF7700881100FF00FF7700FF0071
:204F8000FF00FF00FF00FF00EE00003300CC007700FF00FF00FF00B800F000F000C000F06C
:204FA00000E000FF00FF7700883300FF00EEFF00FF00FF00FF00FF00FF00FF0000000000FB
:204FC00000FF00FF00FF00FF003000F000F000F000F0000E00FF00FF7700007700FF00EEFE
:204FE000FF00FF00FF00FF00FF00FF00FF00FF008800007700FF00FF00FF0007000F000F98
:20500000000F000F000E00FF00FF7700007700FF11CCFF00FF00FF00FF00FF00FF00FF00A3
:20502000FF00CC00003300FF00FF00FF0000000F000F000F000F0008007700FF660000FF56
:2050400000FF3388FF00FF00FF00FF00FF00FF00FF00EE00007700BB00FF00FF00EE000091
:2050600000000000000300003300007700EEEE0000FF00FF3300FF00FF00FF00FF00FF007B
:20508000FF00FF00CC1000FF00DD00FF00FF00EE00000033000000001100FF00007700EEC6
:2050A000CC1100FF00FF7700FF00FF00FF00FF00FF00FF00FF00883200F700EE007700FF90
:2050C00000EE000000333388FF00FF00FF00007711CC883300FF00EEFF00FF00FF00FF00FF
:2050E000CC00000000007700007700F900FF003300FF00DC00C0003311C8FF00FF00FF0027
:2051000000773300883300FF00EEFF00FF00FF00FF00883300FF00EE7700000000FC00FF27
:2051200000CC00FF00DC00C0007000E0FF00FF00FF0000667700007700FF11CCFF00FF008D
:20514000FF00EE0000FF00FF00FF22880000007600FF00AA003300DC00E200F300EEFF00CB
:20516000FF00FF009900FF00007700FF1188FF00FF00FF00CC1100FF00FF00FF00CC0000E7
:20518000007600F700770088003000E000F70088FF00FF00FF00FF00EE0000FF00FF338871
:2051A000FF00FF00FF00883300EE0000007700EE0000003300F7007700FE00B000E000CCE9
:2051C0000000FF00FF00FF00FF00CC1100FF00FF7700FF00FF00FF00007700880000001174
:2051E00000FF0000003300E200FF00FE00F000E000880000FF00FF00FF00FF00CC1100FF6E
:2052000000EEFF00FF00FF00EE0000FF00800000000000FF0088001100D900FF00FE00F0D8
:2052200000E0000000001100FF00FF00FF00883300FF00EEFF00FF00FF00CC1100EE0070A0
:205240000000000000770088001100BB00FF00FF00FC00C00000003000E0FF00FF00FF00BC
:20526000883300FF11CCFF00FF00FF00CC1100DC00F000E00000007700CC0000007700FF58
:2052800000FF00FC00C40000007000F07700FF00FF00007700FF11CCFF00FF00FF00CC114D
:2052A00000B800F000F000A0003300CC003300FF00FF00FF00FC00C4000000F00000770060
:2052C000FF00EE0000FF00FF3388FF00FF00FF008833007000E0001000C0007300EE0033BC
:2052E00000FF00FF00FF00FF00CC001000E000001100FF00EE0000FF00FF7700FF00FF0085
:20530000FF008833001000D100CC00C0001100EE003300FF00FF00FF00EE0044001000C035
:20532000000000226600EE0000FF00EEFF00FF00FF00FF0000770070003300EE00E0001115
:2053400000EE000000FF00FF00FF00990088441000C0000000FF0088008800FF00EEFF0032
:20536000FF00FF00FF00006600F0007700FF0070001100EE00700000003300CC007700CC43
:20538000CC1000C0001100FF00CC0033003311CCFF00FF00FF00FF00006600F0007700FF8A
:2053A0000070001100EE001000F000800000007700EE44000080003300FF00BB00DD00DD2E
:2053C00011CCFF00FF00FF00FF00006600F000FF00FF00C8001100EE000000F000F000E019
:2053E00000FF00EEEE000080007700FF00FF00EE00663388FF00FF00FF00FF00006600F07C
:2054000000FF00FF00F8009100EE0000001000F000E000FF00EE77000040007700FF00FF1E
:2054200000EE00337700FF00FF00FF00FF000066009000FF00FF00F800B100EE000000004D
:2054400000F000E0007700CCFF00AA00007700FF00FF00EE00003388FF00FF00FF00FF0076
:20546000006600F000FF00FF0070009100EE0000000000000000007700CC7700FF000077B9
:2054800000FF00DD00CC11441100FF00FF00FF00FF00006600F0007700FF0070009100EE47
:2054A0000000000000000000003300007700FF00883300FF00FF00CC11EEFF00FF00FF00C2
:2054C000FF00FF00006600F0007700EE0070001100EE000000000000000000000000330071
:2054E000FF00883300FF00EE003311AAFF00FF00FF00FF00FF00006600F000B300CC00C087
:20550000003300DD0000000000000000000000003300FF00CC0000FF00EE00FF11EEFF0093
:20552000FF00FF00FF00FF00007700F000C0003000E000B300DD00000000000000000000A8
:2055400000001100FF00FF00007700CC007711EEFF00FF00FF00FF00FF008833001000F0CD
:2055600000F000E0007700DD000000003300FF00000000001100FF00FF00883300CC0099A6
:2055800011CCFF00FF00FF00FF00FF0088330060003000F000C0007700CC0000000077007E
:2055A000FF00000000000000FF00FF00CC11009900FF1100FF00FF00FF00FF00FF008833B2
:2055C00000B800E0007000C000FF00BB00000000FF00FF00880000000000FF00FF00EE00D7
:2055E000003300FF33CCFF00FF00FF00FF00FF00CC1100DC00F00080008000FF00BB00001C
:205600001100FF00FF00CC00000000007700FF00FF000077007733CCFF00FF00FF00FF0051
:20562000FF00CC1100EE00F000F000B300FF003300003300FF00FF00EE0000000000330089
:20564000FF00CC00003300CC7700FF00FF00FF00FF00FF00EE0000FF000000C0007700EEFC
:2056600000CC00007700FF00FF00FF000000001111CCFF00CC00003311EEFF00FF00FF0002
:20568000FF00FF00FF00FF00007700CC001100FF00DD00EE0000FF00FF00FF00FF0088006C
:2056A000003311CCFF008833009911EEFF00FF00FF00FF00FF00FF00FF00883300FF00FFD6
:2056C00000FF009900EE1100FF00FF00FF00FF008800007700EEFF00003311CC1100FF002B
:2056E000FF00FF00FF00FF00FF00FF00CC0000FF00FF00FF006600441100FF00FF00FF002F
:20570000FF00880000FF00EEFF0000773388FF00FF00FF00FF00FF00FF00FF00FF00FF00ED
:20572000003300FF0088000000BB1100FF00FF00FF00FF00CC1100FF00FF7700003333002F
:20574000FF00FF00FF00FF00FF00FF00FF00FF00FF00CC000000660000FF00FF3388FF0068
:20576000FF00FF00FF00883300FF00FF770088007700FF00FF00FF00FF00FF00FF00FF0004
:20578000FF00FF00FF00FF00EE0000FF00FF3388FF00FF00FF00FF00883300FF00FF77003A
:2057A000DD00FF00FF00FF00FF00FF00FF00FF00FF00FF00FF00FF00FF00EE0000FF00FF2C
:2057C00011CCFF00FF00FF00FF00883300FF00FF7700FF00FF00FF00FF00FF00FF00FF00C7
:2057E000FF00FF00FF00FF00FF00FF00CC1100FF00FF11CCFF00FF00FF00FF00883300FF41
:2058000000FF7700FF00FF00FF00FF00FF00FF00FF00FF00FF00FF00FF00FF00FF00CC1142
:2058200000FF00FF3388FF00FF00FF00FF00883300FF00FF7700FF00FF00FF00FF00FF0088
:20584000FF00FF00FF00FF00FF00FF00FF00FF00CC1100FF00FF3388FF00FF00FF00FF00BE
:20586000883300FF00FF7700FF00FF00FF00FF00FF00FF00FF00FF00FF00FF00FF00FF0004
:20588000FF00CC1100FF00FF3388FF00FF00FF00FF00883300FF00FF7700FF00FF00FF004A
:2058A000FF00FF00FF00FF00FF00FF00FF00FF00FF00FF00CC1100FF00FF7700FF00FF00A2
:2058C000FF00FF00CC1100FF00FF7700FF00FF00FF00FF00FF00FF00FF00FF00FF00FF0082
:2058E000FF00CC0000000000001100FF7700FF00FF00FF00FF00CC1100CC0000000033007E
:20590000FF00FF00FF00FF00FF00FF00FF00FF00FF00FF00003300EE007700EE0066FF00A6
:20592000FF00FF00FF00FF00EE00003300EE007700CC7700FF00FF00FF00FF00FF00FF00A8
:20594000FF00FF00EE0000FF00FF00BB00FF00AAFF00FF00FF00FF00FF00CC1100FF00DD45
:2059600000FF00FF3300FF00FF00FF00FF00FF00FF00FF00FF00CC1100FF00FF00DD00FF47
:2059800011CCFF00FF00FF00FF00FF00883300FF00BB00FF00FF11CCFF00FF00FF00FF00E3
:2059A000FF00FF00FF00FF00883300FF00FF00EE00FF00EEFF00FF00FF00FF00FF008833A1
:2059C00000FF007700FF00FF00EEFF00FF00FF00FF00FF00FF00FF00FF00007700FF00FFF8
:2059E00000FF007700EEFF00FF00FF00FF00FF00883300EE00FF00FF00FF00EEFF00FF00B6
:205A0000FF00FF00FF00FF00FF00EE0000FF00FF00FF00FF00BB00EEFF00FF00FF00FF00FC
:205A2000FF00007700EE00FF00FF00FF00FF7700FF00FF00FF00FF00FF00FF00EE0000FFA8
:205A400000FF00FF00FF00BB00EEFF00FF00FF00FF00FF00007700DD00FF00FF00FF00FF55
:205A60007700FF00FF00FF00FF00FF00FF00EE0000FF00FF00FF00FF00BB00EEFF00FF0024
:205A8000FF00FF00FF00007700DD00FF00FF00FF00FF7700FF00FF00FF00FF00FF00FF0048
:205AA000EE0000FF00FF00FF00FF00DD00EEFF00FF00FF00FF00FF00007700DD00FF00FFE4
:205AC00000FF00FF7700FF00FF00FF00FF00FF00FF00EE0000FF00FF00FF00FF00DD00EEA2
:205AE000FF00FF00FF00FF00FF00007700BB00FF00FF00FF00FF7700FF00FF00FF00FF000A
:205B0000FF00FF00FF00000000000000000000001100FF00FF00FF00FF00FF0088000000F4
:165B200000000000000000007700FF00FF00FF00FF00FF00FF00FE
:205D65000000140028003C00E011F41108121C12C023D423E823FC23A035B435C835DC3598
:205B3600CD545D0E01CD475D214000110400CD0A5C211000CD1D5CC9D57B865F237A8E57B1
:205B560023E50A6F030A6703C5011432CD745CC1E1D1DD2D20E2C980216D5B7EFEC0280871
:205B760036C02E20CD145DC936802E30CD145DC90000DD2E0C216D5D014C00CD4E5B21E0E3
:205B960039193A865B856F8C9567EB21E43E011991CD1D5DC93A875B3D3A865B28093C320A
:205BB600865BFE372807C93D32865BB7C03A875BEE0132875B01199121E43ECD275CC931A3
:205BD6000080CD365BDD2E0421655D0144001100C0CD4E5BDD2E0421655D0144001100808B
:205BF600CD4E5B3A6D5B571E00CD885BCD6E5BCDAB5B18EF1D19067FED597EE61FF640EDDB
:205C1600792B1DF20E5CC9067FED693E40B4ED79C92BC5060009545DCB39300ACD5F5C23B3
:205C360013CD5F5C1B1B1B23CD4D5C2313CD4D5C0D20F1C110DCC91A470707A8E655A80788
:205C5600470F0F0F0FA8E633A84677780707A8E655A807470F0F0F0FA8E633A812C93E7EEA
:205C7600919132825C78EBEB0100081800EDA0EDA0EDA0EDA0EDA0EDA0EDA0EDA0EDA0ED8B
:205C9600A0EDA0EDA0EDA0EDA0EDA0EDA0EDA0EDA0EDA0EDA0EDA0EDA0EDA0EDA0EDA0ED1E
:205CB600A0EDA0EDA0EDA0EDA0EDA0EDA0EDA0EDA0EDA0EDA0EDA0EDA0EDA0EDA0EDA0EDFE
:205CD600A0EDA0EDA0EDA0EDA0EDA0EDA0EDA0EDA0EDA0EDA0EDA0EDA0EDA0EDA0EDA0EDDE
:205CF600A0EDA0EDA0EDA0EDA0EDA03DC8EB09477CE63878C27D5C0150C009C37D5C010C7D
:205D1600BCED4904ED69C9DDE5DD69D51AA623B61213230D20F6D1052814DD4D7AC608579C
:205D3600E63820E77BC6505F7ACEC05718DDDDE1C921645D7EE6FCB1067FED7977C9F32A22
:0F5D56003900EBED5621FBC9223800FBEBC98D5C
:00000001FF
